:100000000C945E000C9486000C9486000C94860080
:100010000C9486000C9486000C9486000C94860048
:100020000C9486000C9486000C9486000C9471034A
:100030000C9486000C9486000C9486000C94860028
:100040000C9494080C9486000C94B3070C94F60757
:100050000C9486000C9486000C9486000C94860008
:100060000C9486000C94860000000007000201003A
:100070000003040600000000000000000102040864
:100080001020408001020408102001020408102002
:10009000040404040404040402020202020203032E
:1000A0000303030300000000250028002B000000CC
:1000B0000000240027002A006706310811241FBE13
:1000C000CFEFD8E0DEBFCDBF11E0A0E0B1E0E4E0CB
:1000D000F7E102C005900D92A431B107D9F722E0F3
:1000E000A4E1B1E001C01D92AD39B207E1F710E023
:1000F000CEE5D0E004C02197FE010E946B0BCC3509
:10010000D107C9F70E940C070C94800B0C940000D7
:100110005C9A5C9808955E9A5E9808952A9A2A9847
:1001200008952C9A2C980895682F85E00C94DD068C
:10013000682F87E00C94DD06682F8BE00C94DD06B9
:10014000682F8DE00C94DD0661E082E00E94A1063C
:1001500061E083E00E94A10661E088E00E94A106C0
:1001600061E089E00E94A10661E084E00E94A106AE
:1001700061E085E00E94A10661E086E00E94A106A0
:1001800061E087E00E94A10661E08AE00E94A1068A
:1001900061E08BE00E94A10661E08CE00E94A10674
:1001A00061E08DE00E94A10660E082E00E94DD0631
:1001B00061E083E00E94DD0660E088E00E94DD06E9
:1001C00061E089E00E94DD06F89410928000E1E889
:1001D000F0E01082109285001092840088EE93E087
:1001E00090938900809388008081886080838081DB
:1001F000836080837894E6E1F1E084E990E0918780
:10020000808788E890E09387828740E050E06AE743
:1002100074E4408351836283738382E390E0A0E0BF
:10022000B0E084839583A683B78328E930E036AFB6
:1002300025AF2BE830E0309356012093550145ABB4
:1002400056AB67AB70AF81AF92AFA3AFB4AF2CE941
:1002500030E030938901209388012EE830E030931C
:100260008B0120938A014093800150938101609318
:100270008201709383018093840190938501A09300
:100280008601B093870120EA30E03093BE012093CD
:10029000BD0121E930E03093C0012093BF014093BC
:1002A000B5015093B6016093B7017093B801809384
:1002B000B9019093BA01A093BB01B093BC0108951A
:1002C0008F929F92AF92BF92CF92DF92EF92FF9266
:1002D000CF93DF93EC01688179818A819B810E94B1
:1002E000FD097D876C876C857D8580E090E00E94AC
:1002F0002C0A6BA77CA78DA79EA76BA57CA58DA5B7
:100300009EA50E94FD096FA778AB89AB9AAB1CAA8A
:100310001BAA1AA619A6188E1F8A1E8A80E090E0D2
:10032000A0E8BFE38DA39EA3AFA3B8A76C817D8196
:100330008E819F81EC84FD840E942C0A4B015C011C
:10034000B70180E090E00E942C0A9B01AC01C5013E
:10035000B4010E948B0926E53EE04DE25FE30E9476
:10036000E30A6B017C019B01AC010E94E30A20E0DF
:1003700030E040E85FE30E9419094B015C0120E096
:1003800030E040E050ECC701B6010E94E30A9B0157
:10039000AC01C501B4010E948B099B01AC010E9414
:1003A000E30A0E94FD09698F7A8F8B8F9C8FDF9102
:1003B000CF91FF90EF90DF90CF90BF90AF909F9044
:1003C0008F9008952F923F924F925F926F927F92FB
:1003D0008F929F92AF92BF92CF92DF92EF92FF9255
:1003E0000F931F93CF93DF931B01FC0164857585E9
:1003F00080E090E00E942C0A6B017C0105E010E097
:10040000C1E0D0E0812C912C5401C215D30538F500
:10041000A7019601C701B6010E941A092B013C01F0
:10042000B80180E090E00E942C0A9B01AC01C3015E
:10043000B2010E948B099B01AC01C701B6010E9469
:1004400019096B017C019B01AC01C501B4010E943B
:100450001A094B015C0121960C5F1F4FD6CFC501D5
:10046000B401DF91CF911F910F91FF90EF90DF903A
:10047000CF90BF90AF909F908F907F906F905F9044
:100480004F903F902F9008958F929F92AF92BF927E
:10049000CF92DF92EF92FF920F931F93CF93DF9350
:1004A0005C016A017B0185E38A9D80018B9D100DB3
:1004B00011240A5E1E4FD8011896ED91FC911997F0
:1004C000DB01CA018827B7FD83959927AA27BB2797
:1004D00009951C141D041E041F041CF08FEF9FEFD0
:1004E00002C081E090E025E32A9DF0012B9DF00DF4
:1004F0001124EA5EFE4F938B828BF7FE08C0F094C6
:10050000E094D094C094C11CD11CE11CF11C85E383
:100510008A9DE0018B9DD00D1124CA5EDE4FDD8ADD
:10052000CC8AC8010E9460012091150181E090E011
:1005300001C0880FAA94EAF7822B80931501898D58
:100540009A8DAB8DBC8D880F991FAA1FBB1F8C1570
:100550009D05AE05BF0560F5898D9A8DAB8DBC8D6F
:10056000880F991FAA1FBB1FC81AD90AEA0AFB0ADB
:10057000698D7A8D8B8D9C8DC8010E94E2014B01A3
:100580005C016C817D818E819F81A70196010E9413
:10059000500B0E942C0A6B017C01A5019401C5013E
:1005A000B4010E941A099B01AC01C701B6010BC03E
:1005B000C701B6019695879577956795C8010E9402
:1005C000E2019B01AC010E941A090E94FD096D8F96
:1005D0007E8F8F8F98A3DF91CF911F910F91FF9006
:1005E000EF90DF90CF90BF90AF909F908F90089545
:1005F0000F931F93CF9380E090E04FE352E46FE0BE
:1006000070E0A5E32091150130E0082E02C0359579
:1006100027950A94E2F720FF11C0A89FF001A99F37
:10062000F00D1124EA5EFE4F07A510A921A932A9F9
:10063000041715072607370708F442C001968430CF
:10064000910501F71092140180E090E0C5E3A1E06C
:10065000B0E0C89FF001C99FF00D1124EA5EFE4F83
:1006600026892091150130E0082E02C03595279586
:100670000A94E2F720FF09C007A510A921A932A911
:10068000401751076207730701F101968430910505
:1006900001F78091150181110BC080916F008D7F52
:1006A00080936F008CED9FEF90938900809388007A
:1006B0005093890040938800CF911F910F91089526
:1006C00047A550A961A972A9B9CFE09114019D0174
:1006D000082E01C0220F0A94EAF72E2B2093140152
:1006E000D4CF1F920F920FB60F9211242F923F92E8
:1006F0004F925F926F927F928F929F92AF92BF9232
:10070000CF92DF92EF92FF920F931F932F933F931D
:100710004F935F936F937F938F939F93AF93BF9309
:10072000EF93FF93CF93DF9300D000D0CDB7DEB728
:1007300040908800509089008CED9FEF9093890045
:100740008093880000E010E065E3362E2224239495
:10075000612C712C8091150190E0002E02C09595BE
:1007600087950A94E2F780FF82C18091140190E09E
:10077000002E02C0959587950A94E2F780FD14C07B
:10078000309EF001319EF00D1124EA5EFE4F87A5E8
:1007900090A9A1A9B2A984199509A609B70987A7A3
:1007A00090ABA1ABB2AB63C1309E9001319E300DD6
:1007B00011242A5E3E4F3A832983D901D3962D9185
:1007C0003C91D49754968D919C9155972817390751
:1007D000A0F51A96ED91FC911B970995E981FA8194
:1007E00083A994A9019694AB83AB2289338946856A
:1007F000578560897189C901330FAA0BBB0B840F20
:10080000951FA61FB71F86879787A08BB18B23A93B
:1008100034A9848995892817390778F0268A909118
:10082000150121E030E0002E01C0220F0A94EAF702
:10083000822F8095892380931501309E9001319EEF
:10084000300D11242A5E3E4F3C832B83D9015796ED
:100850008D919C915897892B09F0A5C099968D91FF
:100860009C919A9701969A969C938E9399979B96B2
:10087000CD90DD90ED90FC909E979B966D917D9133
:100880008D919C919E979996ED91FC919A97FA8300
:10089000E9839B01AC010E941A094B015C0169814B
:1008A0007A81660F771F660F771F6F5F7F4F80E03B
:1008B00090E00E942C0A9B01AC01C501B4010E948A
:1008C0008B099B01AC01C701B6010E941909AB81DC
:1008D000BC819B966D937D938D939C939E979B96E5
:1008E000CD90DD90ED90FC909E9714966D917D914A
:1008F0008D919C9117970E942C0A9B01AC01C70116
:10090000B6010E9486091816C4F0EB81FC8164814F
:100910007581868197810E942C0AAB81BC819B9650
:100920006D937D938D939C939E97D3968D919C917F
:10093000D49758969C938E935797309EF001319E92
:10094000F00D1124EA5EFE4F23A934A9848995890C
:10095000969587952817390720F083A994A9908F39
:10096000878B309EF001319EF00D1124EA5EFE4F20
:10097000FA83E983C3A4D4A4E5A4F6A461A172A177
:1009800083A194A10E942C0AA70196010E941A0932
:100990000E94FD09A981BA8191966D937D938D93F3
:1009A0009C93949747C0EB81FC8123A934A9848947
:1009B00095894789508D841B950B28173907D0F1ED
:1009C000C3A4D4A4E5A4F6A461A572A5A1A4B2A46D
:1009D000660F771F660F771F6F5F7F4F80E090E095
:1009E0000E942C0AA70196010E94E30A6B017C0178
:1009F000B501660F771F660F771F6150710980E0A0
:100A000090E00E942C0A9B01AC01C701B6010E9434
:100A10008B09AB81BC819B966D937D938D939C9349
:100A20009E9799968D919C919A9701979A969C93EF
:100A30008E939997309EF001319EF00D1124EA5E5D
:100A4000FE4FFA83E98363A574A585A596A525A124
:100A500036A147A150A50E94E30A0E94FD09A98181
:100A6000BA819F966D937D938D939C93D2970F5FE0
:100A70001F4F0430110509F06DCE0E94F80210924C
:100A80008500109284000F900F900F900F90DF91CF
:100A9000CF91FF91EF91BF91AF919F918F917F91F6
:100AA0006F915F914F913F912F911F910F91FF9007
:100AB000EF90DF90CF90BF90AF909F908F907F90FE
:100AC0006F905F904F903F902F900F900FBE0F90C0
:100AD0001F901895BF92CF92DF92EF92FF920F93E3
:100AE0001F93CF93DF93C0E0D0E0C12CD12C7601CF
:100AF00095E3B92E8091150190E00C2E02C09595DA
:100B000087950A94E2F780FF1DC0BC9E8001BD9EC0
:100B1000100D11240A5E1E4FF801658D768D878DAC
:100B200090A10E942C0AA70196010E94DE0A1816C5
:100B30004CF4F801658D768D878D90A10E942C0A6A
:100B40006B017C012196C430D105A1F620E030E094
:100B5000A901C701B6010E948609882361F1C0E09E
:100B6000D0E085E3B82E8091150190E00C2E02C0F4
:100B7000959587950A94E2F780FF19C0BC9E800185
:100B8000BD9E100D11240A5E1E4FF801658D768DF5
:100B9000878D90A10E942C0A9B01AC01C701B60170
:100BA0000E948B09F80165A376A387A390A72196DD
:100BB000C430D105C1F6DF91CF911F910F91FF9005
:100BC000EF90DF90CF90BF9008950E946A050E9439
:100BD000F80280916F00826080936F008091150110
:100BE0008111FCCF109215011092140108954091CB
:100BF000000150910101052E000C660B770B80E07F
:100C000090E00E9444024091000150910101052EA4
:100C1000000C660B770B81E090E00E94440240914B
:100C2000000150910101052E000C660B770B82E04C
:100C300090E00E9444024091000150910101052E74
:100C4000000C660B770B83E090E00E9444020E9448
:100C5000E5054091000150910101519541955109DF
:100C6000052E000C660B770B80E090E00E9444029A
:100C70004091000150910101519541955109052E76
:100C8000000C660B770B81E090E00E9444024091DB
:100C9000000150910101519541955109052E000C1B
:100CA000660B770B82E090E00E94440240910001C5
:100CB00050910101519541955109052E000C660B8B
:100CC000770B83E090E00E9444020C94E5051092BB
:100CD0002C0110926101109296011092CB0108959F
:100CE000609102018AEE91E00E9470070C94F70572
:100CF000833081F028F4813099F08230A1F008959A
:100D00008630A9F08730B9F08430D1F4809180002A
:100D10008F7D03C0809180008F778093800008953D
:100D200084B58F7702C084B58F7D84BD089580918E
:100D3000B0008F7703C08091B0008F7D8093B000AA
:100D40000895CF93DF9390E0FC01E458FF4F249186
:100D5000FC01E057FF4F8491882361F190E0880FF8
:100D6000991FFC01E255FF4FC591D491FC01EC5550
:100D7000FF4FA591B491611109C09FB7F894888184
:100D8000209582238883EC912E230BC0623061F47E
:100D90009FB7F8948881322F309583238883EC9114
:100DA0002E2B2C939FBF06C08FB7F894E8812E2B73
:100DB00028838FBFDF91CF9108951F93CF93DF9347
:100DC000282F30E0F901E859FF4F8491F901E458E8
:100DD000FF4FD491F901E057FF4FC491CC23C1F0EC
:100DE000162F81110E947806EC2FF0E0EE0FFF1F06
:100DF000EC55FF4FA591B4919FB7F894111104C021
:100E00008C91D095D82302C0EC91DE2BDC939FBF50
:100E1000DF91CF911F9108950E94DE080E94A400E7
:100E2000CDEED7E00E9470062097E1F30E94ED0717
:100E3000F9CFFC0124853585F901E05CFF4F808105
:100E40009181329620813181821B930B8F73992778
:100E50000895DC011C96ED91FC911D97DF01A05CCB
:100E6000BF4F2D913C91119712968D919C911197A6
:100E70002817390739F08D919C91E80FF91F80816F
:100E800090E008958FEF9FEF0895FC01A485B5854C
:100E9000FD01E05CFF4F208131813296808191819C
:100EA0002817390779F080819181A80FB91F8C919B
:100EB000208131812F5F3F4F2F7333273183208370
:100EC00090E008958FEF9FEF0895FC0181A18823A2
:100ED00029F0A489B5898C9186FFFBCF11A20895D2
:100EE0000F931F93CF93DF93FC01A685B7858D01E8
:100EF000005C1F4FE8018881998101968F739927C3
:100F0000AD014E5B5F4FEA0128813981281739070F
:100F1000D1F3E80128813981A20FB31F6C93A68514
:100F2000B785A05CBF4F11969C938E93A689B78915
:100F30002C9181E090E0078C02C0880F991F0A94E1
:100F4000E2F7822B8C9381E081A30488F589E02D60
:100F500080818064808381E090E0DF91CF911F9158
:100F60000F91089508951F920F920FB60F921124BA
:100F70002F934F935F938F939F93EF93FF93809162
:100F8000C00082FD1CC02091C6008091900290910B
:100F90009102409192025091930201968F7399278A
:100FA0004817590771F0E0919002F0919102E05BCF
:100FB000FD4F2083909391028093900202C0809114
:100FC000C600FF91EF919F918F915F914F912F916B
:100FD0000F900FBE0F901F9018958AEE91E00E941F
:100FE0001907892B11F00C94B20708951F920F92E4
:100FF0000FB60F9211242F933F938F939F93EF93EC
:10100000FF9320914C0230914D0280914E029091BD
:101010004F022817390731F48091C1008F7D8093EA
:10102000C10014C0E0914E02F0914F02E45FFD4F09
:10103000208180914E0290914F0201968F739927E3
:1010400090934F0280934E022093C600FF91EF9140
:101050009F918F913F912F910F900FBE0F901F90F6
:101060001895EAEEF1E01382128288EE93E0A0E098
:10107000B0E084839583A683B78387E091E0918372
:10108000808380E592E0958784878CE092E0978763
:10109000868785EC90E0918B808B84EC90E0938B3D
:1010A000828B80EC90E0958B848B81EC90E0978B29
:1010B000868B82EC90E0918F808F86EC90E0938F0E
:1010C000828F84E0848F83E0858F87E0868F85E040
:1010D000878F81E080A30895CF92DF92EF92FF92F5
:1010E0000F931F93CF93DF936C01EB017B01E40E11
:1010F000F51E00E010E0CE15DF0561F06991D60124
:10110000ED91FC910190F081E02DC6010995080F49
:10111000191FF1CFC801DF91CF911F910F91FF905F
:10112000EF90DF90CF9008951F920F920FB60F921D
:1011300011242F933F938F939F93AF93BF938091ED
:10114000950290919602A0919702B09198023091E9
:10115000940223E0230F2D3720F40196A11DB11D29
:1011600005C026E8230F0296A11DB11D209394020D
:101170008093950290939602A0939702B093980261
:101180008091990290919A02A0919B02B0919C0249
:101190000196A11DB11D8093990290939A02A0938C
:1011A0009B02B0939C02BF91AF919F918F913F9111
:1011B0002F910F900FBE0F901F901895789484B5C3
:1011C000826084BD84B5816084BD85B5826085BD43
:1011D00085B5816085BDEEE6F0E080818160808329
:1011E000E1E8F0E01082808182608083808181600C
:1011F0008083E0E8F0E0808181608083E1EBF0E0D3
:10120000808184608083E0EBF0E080818160808376
:10121000EAE7F0E08081846080838081826080835F
:101220008081816080838081806880831092C1008A
:1012300008955058BB27AA270E9431090C94A40A8C
:101240000E94960A38F00E949D0A20F039F49F3FD0
:1012500019F426F40C94930A0EF4E095E7FB0C9431
:101260008D0AE92F0E94B50A58F3BA17620773076F
:101270008407950720F079F4A6F50C94D70A0EF4AC
:10128000E0950B2EBA2FA02D0B01B90190010C0196
:10129000CA01A0011124FF27591B99F0593F50F4AE
:1012A000503E68F11A16F040A22F232F342F442706
:1012B000585FF3CF469537952795A795F0405395FE
:1012C000C9F77EF41F16BA0B620B730B840BBAF0CE
:1012D0009150A1F0FF0FBB1F661F771F881FC2F739
:1012E0000EC0BA0F621F731F841F48F4879577954D
:1012F0006795B795F7959E3F08F0B0CF9395880F07
:1013000008F09927EE0F9795879508950E94690A2E
:1013100008F481E008950E949F090C94A40A0E9499
:101320009D0A58F00E94960A40F029F45F3F29F088
:101330000C948D0A51110C94D80A0C94930A0E94B3
:10134000B50A68F39923B1F3552391F3951B550B17
:10135000BB27AA2762177307840738F09F5F5F4F88
:10136000220F331F441FAA1FA9F335D00E2E3AF0C7
:10137000E0E832D091505040E695001CCAF72BD0DF
:10138000FE2F29D0660F771F881FBB1F2617370730
:101390004807AB07B0E809F0BB0B802DBF01FF2762
:1013A00093585F4F3AF09E3F510578F00C948D0AA8
:1013B0000C94D80A5F3FE4F3983ED4F38695779572
:1013C0006795B795F7959F5FC9F7880F911D96951B
:1013D000879597F90895E1E0660F771F881FBB1F77
:1013E000621773078407BA0720F0621B730B840B24
:1013F000BA0BEE1F88F7E09508950E94BD0A88F0A9
:101400009F5798F0B92F9927B751B0F0E1F0660FC8
:10141000771F881F991F1AF0BA95C9F714C0B13009
:1014200091F00E94D70AB1E008950C94D70A672F73
:10143000782F8827B85F39F0B93FCCF38695779538
:101440006795B395D9F73EF4909580957095619521
:101450007F4F8F4F9F4F0895E89409C097FB3EF44C
:1014600090958095709561957F4F8F4F9F4F9923F1
:10147000A9F0F92F96E9BB279395F695879577956F
:101480006795B795F111F8CFFAF4BB0F11F460FF2F
:101490001BC06F5F7F4F8F4F9F4F16C0882311F087
:1014A00096E911C0772321F09EE8872F762F05C09B
:1014B000662371F096E8862F70E060E02AF09A9536
:1014C000660F771F881FDAF7880F9695879597F92B
:1014D0000895990F0008550FAA0BE0E8FEEF1616C5
:1014E0001706E807F907C0F012161306E407F50718
:1014F00098F0621B730B840B950B39F40A2661F08C
:10150000232B242B252B21F408950A2609F4A1402E
:10151000A6958FEF811D811D089597F99F6780E83B
:1015200070E060E008959FEF80EC089500240A9435
:101530001616170618060906089500240A941216AE
:101540001306140605060895092E0394000C11F4E1
:10155000882352F0BB0F40F4BF2B11F460FF04C08E
:101560006F5F7F4F8F4F9F4F089557FD9058440FE7
:10157000551F59F05F3F71F04795880F97FB991FF2
:1015800061F09F3F79F087950895121613061406AF
:10159000551FF2CF4695F1DF08C01616170618063C
:1015A000991FF1CF86957105610508940895E89417
:1015B000BB2766277727CB0197F908950E94690A10
:1015C00008F48FEF08950E94F60A0C94A40A0E9472
:1015D000960A38F00E949D0A20F0952311F00C9491
:1015E0008D0A0C94930A11240C94D80A0E94B50A0F
:1015F00070F3959FC1F3950F50E0551F629FF00166
:10160000729FBB27F00DB11D639FAA27F00DB11D7E
:10161000AA1F649F6627B00DA11D661F829F222707
:10162000B00DA11D621F739FB00DA11D621F839F8E
:10163000A00D611D221F749F3327A00D611D231F64
:10164000849F600D211D822F762F6A2F11249F57B2
:1016500050409AF0F1F088234AF0EE0FFF1FBB1FB5
:10166000661F771F881F91505040A9F79E3F510574
:1016700080F00C948D0A0C94D80A5F3FE4F3983EF6
:10168000D4F3869577956795B795F795E7959F5F1E
:10169000C1F7FE2B880F911D9695879597F90895B0
:1016A000DB018F939F930E94600BBF91AF91A29F2C
:1016B000800D911DA39F900DB29F900D1124089550
:1016C0000E94710BA59F900DB49F900DA49F800D5B
:1016D000911D11240895EE0FFF1F0590F491E02D48
:1016E0000994A29FB001B39FC001A39F700D811DFB
:1016F0001124911DB29F700D811D1124911D08951B
:04170000F894FFCF8B
:10170400D007310000000070076C0819074507294D
:04171400076507005E
:00000001FF
