:100000000C945E000C9486000C9486000C94860080
:100010000C9486000C9486000C9486000C94860048
:100020000C9486000C9486000C9486000C941D069B
:100030000C9486000C9486000C9486000C94860028
:100040000C9419150C9486000C948F160C94D216EF
:100050000C9486000C9486000C9486000C94860008
:100060000C9486000C94860000000007000201003A
:100070000003040600000000000000000102040864
:100080001020408001020408102001020408102002
:10009000040404040404040402020202020203032E
:1000A0000303030300000000250028002B000000CC
:1000B0000000240027002A00AB11951711241FBE51
:1000C000CFEFD8E0DEBFCDBF12E0A0E0B1E0ECEEB4
:1000D000F5E302C005900D92AC3EB107D9F727E0D9
:1000E000ACEEB2E001C01D92A238B207E1F710E019
:1000F000CEE5D0E004C02197FE010E94D61ACC358F
:10010000D107C9F70E94D0170C94F41A0C94000080
:10011000DC01FB0112968C911297808313968C91CF
:100120001397818314968C911497828315968C91E2
:100130001597838316968C911697848317968C91C6
:100140001797858318968C911897868319968C91AA
:10015000878388E090E00895FC01DB014C9150E03A
:1001600060E070E0428353836483758311968C91C1
:100170001197582B428353836483758312968C9115
:100180001297682B428353836483758313968C91F3
:100190001397782B428353836483758314964C9111
:1001A000149750E060E070E0468357836087718762
:1001B00015968C911597582B4683578360877187C6
:1001C00016968C911697682B4683578360877187A4
:1001D00017968C91782B468357836087718788E0C8
:1001E00090E0089586E091E0089584E191E008951B
:1001F00085E391E008958EE491E008958FE691E023
:10020000089582E891E0089589E492E0089583EAF0
:1002100091E00895DC01FB0112963C911297139630
:100220002C91139714969C91149715968C91159771
:10023000308321839283838316963C911697179679
:100240002C91179718969C91189719968C9119973D
:1002500034832583968387831A963C911A971B963D
:100260002C911B971C969C911C971D968C911D9709
:1002700030872187928783871E963C911E971F9611
:100280002C911F9750969C91509751968C91348742
:1002900025879687878780E190E00895DC01FB0140
:1002A0008181428150E060E070E0BA015527442727
:1002B000582B8081482B8381782B12964D935D9328
:1002C0006D937C9315978581468150E060E070E0E6
:1002D000BA0155274427582B8481482B8781782BD6
:1002E00016964D935D936D937C9319978185428506
:1002F00050E060E070E0BA0155274427582B808514
:10030000482B8385782B1A964D935D936D937C9340
:100310001D978585468550E060E070E0BA0155275D
:100320004427582B8485482B8785782B1E964D9320
:100330005D936D937C93519780E190E0089585E6FD
:1003400092E0089584EC91E00895FC018281FB0124
:10035000808381E090E00895FB012081FC012283ED
:1003600081E090E0089585E692E0089585EE91E0C1
:1003700008955C9A5C9808955E9A5E9808952A9A0A
:100380002A9808952C9A2C980895EF92FF920F9333
:100390001F93CF93DF93EC017C0186E0E80EF11C04
:1003A000C7010E944E018E01085E1F4FEDA1FEA104
:1003B000B801C701099589A19AA1DC01ED91FC91D1
:1003C0006F8D78A10190F081E02DA801DF91CF9190
:1003D0001F910F91FF90EF90099483E090E00895B2
:1003E00085E692E0089584EC91E00895FC01EA54DA
:1003F000FD4F80810895682F85E00C94E914682FE3
:1004000087E00C94E914682F8BE00C94E914682FB2
:100410008DE00C94E914AF92BF92CF92DF92EF92ED
:10042000FF920F931F93CF93DF9300D000D01F92C2
:10043000CDB7DEB78C016B01643671053CF0FC0171
:10044000EA54FD4F8081882309F478C0DA01ED91E8
:10045000FC910190F081E02DB801695C7E4FCA01EA
:1004600009957801B0EDEB1ABEEFFB0A2FEFF7010B
:1004700020832EEF319620833196808331969083AE
:100480003196292F280F209520833196C082D801DC
:10049000AA5CBE4FDC9245E050E020E030E0BC01B9
:1004A0006A5F7F4F6417750734F0A1912A0F311DE1
:1004B0004F5F5F4FF7CF6C01F8E0CF0ED11C800F7C
:1004C000911FFC01E95CFE4F2095208329E1C216B3
:1004D00021E0D206CCF45701C5018E199F098C1575
:1004E0009D0584F4D80112968D919C911397F50186
:1004F00061915F01DC01ED91FC910190F081E02DB3
:100500000995EACFC6011CC089E992E09A838983E4
:1005100083E08B8386E092E09D838C83D801ED910C
:10052000FC910190F081E02DAE014F5F5F4F67E0DD
:1005300070E0C80109958FEF9FEF02C080E090E066
:100540000F900F900F900F900F90DF91CF911F9110
:100550000F91FF90EF90DF90CF90BF90AF900895F4
:100560004091ED035091EE036091EF037091F00321
:100570008091EB039091EC030E940D171092960668
:1005800010929506109298061092970610929C066B
:1005900010929B0610929A0610929906E1E3F6E0FB
:1005A00080E090E021913191232BB1F4FC01EE0F1A
:1005B000FF1FEF5CF94F2DED33E03183208383582B
:1005C0009F4F9093E2038093E10389EE93E0909331
:1005D000E4038093E30304C001968931910511F788
:1005E000E3E6F6E080E090E021913191232B81F465
:1005F000FC01EE0FFF1FED59F94F22EC33E0318380
:1006000020838C599F4F9093C5038093C40304C0EB
:1006100001968931910541F761E082E00E94AD14B5
:1006200061E083E00E94AD1461E088E00E94AD14B7
:1006300061E089E00E94AD1461E084E00E94AD14A5
:1006400061E085E00E94AD1461E086E00E94AD1497
:1006500061E087E00E94AD1461E08AE00E94AD1481
:1006600061E08BE00E94AD1461E08CE00E94AD146B
:1006700061E08DE00E94AD1460E082E00E94E91428
:1006800061E083E00E94E91460E088E00E94E914E0
:1006900061E089E00E94E914F894109280001092C1
:1006A0008100109285001092840088EE93E0909370
:1006B0008900809388008091810088608093810008
:1006C0008091810083608093810078948BEF91E02A
:1006D0009093F7028093F60289EB91E09093F902F0
:1006E0008093F80240E050E86BEB74E44093EE0234
:1006F0005093EF026093F0027093F10288EE93E062
:10070000A0E0B0E08093F2029093F302A093F40291
:10071000B093F5022FEF31E030932C0320932B039D
:100720002CEB31E030932E0320932D0340932303D1
:10073000509324036093250370932603809327032B
:1007400090932803A0932903B0932A0323E032E077
:1007500030936103209360032FEB31E03093630308
:1007600020936203409358035093590360935A03B4
:1007700070935B0380935C0390935D03A0935E038F
:10078000B0935F0327E032E0309396032093950304
:1007900022EC31E0309398032093970340938D032C
:1007A00050938E0360938F03709390038093910313
:1007B00090939203A0939303B093940308958F9220
:1007C0009F92AF92BF92CF92DF92EF92FF92CF9320
:1007D000DF93EC01688179818A819B810E941E19D7
:1007E0007D876C876C857D8580E090E00E944D1947
:1007F0006BA77CA78DA79EA76BA57CA58DA59EA5A5
:100800000E941E196FA778AB89AB9AAB1CAA1BAAD2
:100810001AA619A6188E1F8A1E8A80E090E0A0E80A
:10082000BFE38DA39EA3AFA3B8A76C817D818E810A
:100830009F81EC84FD840E944D194B015C01B7013E
:1008400080E090E00E944D199B01AC01C501B4010C
:100850000E94A51826E53EE04DE25FE30E94041ADF
:100860006B017C019B01AC010E94041A20E030E086
:1008700040E85FE30E9433184B015C0120E030E068
:1008800040E050ECC701B6010E94041A9B01AC0184
:10089000C501B4010E94A5189B01AC010E94041A75
:1008A0000E941E19698F7A8F8B8F9C8FDF91CF9159
:1008B000FF90EF90DF90CF90BF90AF909F908F9080
:1008C00008952F923F924F925F926F927F928F92F4
:1008D0009F92AF92BF92CF92DF92EF92FF920F93CF
:1008E0001F93CF93DF931B01FC016485758580E026
:1008F00090E00E944D196B017C01C5E0D0E001E061
:1009000010E0812C912C54010215130538F5A70134
:100910009601C701B6010E9434182B013C01BE01AB
:1009200080E090E00E944D199B01AC01C301B2012F
:100930000E94A5189B01AC01C701B6010E943318A3
:100940006B017C019B01AC01C501B4010E9434180C
:100950004B015C010F5F1F4F2496D6CFC501B40138
:10096000DF91CF911F910F91FF90EF90DF90CF908B
:10097000BF90AF909F908F907F906F905F904F90BF
:100980003F902F9008952F923F924F925F926F92D7
:100990007F928F929F92AF92BF92CF92DF92EF920F
:1009A000FF920F931F93CF93DF9300D000D0CDB76A
:1009B000DEB75C0185E38A9D80018B9D100D1124BB
:1009C00002511D4FD8011896ED91FC911997DB014A
:1009D000CA018827B7FD83959927AA27BB27498392
:1009E0005A836B837C83099549815A816B817C8111
:1009F00014161506160617061CF08FEF9FEF02C09F
:100A000081E090E025E32A9DF0012B9DF00D11245B
:100A1000E251FD4F938B828B6A017B0177FF08C007
:100A2000F094E094D094C094C11CD11CE11CF11C42
:100A300085E38A9D90018B9D300D1124F901E251CF
:100A4000FD4F1F01D58AC48AC8010E94DF0340916F
:100A5000ED0221E030E0C90101C0880FAA94EAF755
:100A6000842B8093ED02F101818D928DA38DB48D45
:100A7000880F991FAA1FBB1F8C159D05AE05BF05CA
:100A8000B0F5818D928DA38DB48D880F991FAA1F0B
:100A9000BB1FC81AD90AEA0AFB0A618D728D838DC1
:100AA000948DC8010E946104D10114968D909D908F
:100AB000AD90BC9017979B01AC010E9434182B019C
:100AC0003C01A7019601C501B4010E94711A0E9460
:100AD0004D199B01AC01C301B2010E9434180E9460
:100AE0001E19F101658F768F878F90A316C0C701FD
:100AF000B6019695879577956795C8010E94610420
:100B00009B01AC010E9434180E941E19D1015D9610
:100B10006D937D938D939C9390970F900F900F9072
:100B20000F90DF91CF911F910F91FF90EF90DF9089
:100B3000CF90BF90AF909F908F907F906F905F907D
:100B40004F903F902F9008950F931F93CF9380E085
:100B500090E04FE352E46FE070E0A5E32091ED02F6
:100B600030E0082E02C0359527950A94E2F720FF61
:100B700011C0A89FF001A99FF00D1124E251FD4F73
:100B800007A510A921A932A90417150726073707B9
:100B900008F442C001968430910501F71092EC02EE
:100BA00080E090E0C5E3A1E0B0E0C89FF001C99FFC
:100BB000F00D1124E251FD4F26892091ED0230E025
:100BC000082E02C0359527950A94E2F720FF09C048
:100BD00007A510A921A932A9041715072607370769
:100BE00001F101968430910501F78091ED028111A8
:100BF0000BC080916F008D7F80936F008CED9FEF15
:100C000090938900809388005093890040938800D6
:100C1000CF911F910F91089547A550A961A972A97D
:100C2000B9CFE091EC029D01082E01C0220F0A9479
:100C3000EAF72E2B2093EC02D4CF1F920F920FB61F
:100C40000F9211242F923F924F925F926F927F9258
:100C50008F929F92AF92BF92CF92DF92EF92FF92CC
:100C60000F931F932F933F934F935F936F937F93B4
:100C70008F939F93AF93BF93EF93FF93CF93DF93A4
:100C8000CDB7DEB72897DEBFCDBF4090880050902B
:100C900089008CED9FEF909389008093880000E09D
:100CA00010E065E3362E22242394612C712C809170
:100CB000ED0290E0002E02C0959587950A94E2F728
:100CC00080FF88C18091EC0290E0002E02C09595D3
:100CD00087950A94E2F780FD14C0309EF001319EA2
:100CE000F00D1124E251FD4F87A590A9A1A9B2A949
:100CF00084199509A609B70987A790ABA1ABB2AB38
:100D000069C1309EC001319E900D11249C01225179
:100D10003D4F7901D901D3962D913C91D4975496AA
:100D20008D919C9155972817390798F51A96ED9152
:100D3000FC911B970995F70183A994A9019694AB9F
:100D400083AB828993894685578560897189092E8D
:100D5000000CAA0BBB0B840F951FA61FB71F86871D
:100D60009787A08BB18B23A934A9848995892817EB
:100D7000390778F0268A9091ED0221E030E0002ECC
:100D800001C0220F0A94EAF7822F8095892380936D
:100D9000ED02309EC001319E900D11249C01225124
:100DA0003D4F38872F83D90157968D919C91589745
:100DB000892B09F0AAC099968D919C919A970196DA
:100DC0009A969C938E9399979B96CD90DD90ED90FB
:100DD000FC909E979B966D917D918D919C919E9795
:100DE0009996ED91FC919A97FA83E9839B01AC0166
:100DF0000E9434184B015C0169817A81660F771F6C
:100E0000660F771F6F5F7F4F80E090E00E944D1963
:100E10009B01AC01C501B4010E94A5189B01AC0166
:100E2000C701B6010E943318AF81B8859B966D93B8
:100E30007D938D939C939E979B96CD90DD90ED90A6
:100E4000FC909E9714966D917D918D919C91179732
:100E50000E944D199B01AC01C701B6010E94A01868
:100E60001816C4F0EF81F8856481758186819781B9
:100E70000E944D19AF81B8859B966D937D938D939C
:100E80009C939E97D3968D919C91D49758969C93C2
:100E90008E935797309EF001319EF00D1124E25150
:100EA000FD4F23A934A9848995899695879528179C
:100EB000390720F083A994A9908F878B309EC001B9
:100EC000319E900D1124FC01E251FD4F7F0123A5BD
:100ED00034A545A556A561A172A183A194A12B8338
:100EE0003C834D835E830E944D192B813C814D8153
:100EF0005E810E9434180E941E19D70191966D934D
:100F00007D938D939C93949749C0EF81F88523A995
:100F100034A9848995894789508D841B950B28179E
:100F20003907E0F183A494A4A5A4B6A461A572A591
:100F3000E1A4F2A4660F771F660F771F6F5F7F4FE4
:100F400080E090E00E944D199B01AC01C501B40105
:100F50000E94041A4B015C01B701660F771F660FF0
:100F6000771F6150710980E090E00E944D199B014C
:100F7000AC01C501B4010E94A518AF81B8859B964C
:100F80006D937D938D939C939E9799968D919C9153
:100F90009A9701979A969C938E939997309EC00149
:100FA000319E900D1124FC01E251FD4F7F0163A59C
:100FB00074A585A596A525A136A147A150A50E9497
:100FC000041A0E941E19D7019F966D937D938D93ED
:100FD0009C93D2970F5F1F4F0430110509F067CE25
:100FE0000E94A405109285001092840028960FB6E6
:100FF000F894DEBF0FBECDBFDF91CF91FF91EF918F
:10100000BF91AF919F918F917F916F915F914F9120
:101010003F912F911F910F91FF90EF90DF90CF9014
:10102000BF90AF909F908F907F906F905F904F9008
:101030003F902F900F900FBE0F901F901895BF926A
:10104000CF92DF92EF92FF920F931F93CF93DF9394
:10105000C0E0D0E0C12CD12C760195E3B92E80916F
:10106000ED0290E00C2E02C0959587950A94E2F768
:1010700080FF1DC0BC9E8001BD9E100D1124025139
:101080001D4FF801658D768D878D90A10E944D19B9
:10109000A70196010E94FF1918164CF4F801658DFE
:1010A000768D878D90A10E944D196B017C01219650
:1010B000C430D105A1F620E030E0A901C701B60196
:1010C0000E94A018882361F1C0E0D0E085E3B82E2B
:1010D0008091ED0290E00C2E02C0959587950A94C0
:1010E000E2F780FF19C0BC9E8001BD9E100D112447
:1010F00002511D4FF801658D768D878D90A10E945C
:101100004D199B01AC01C701B6010E94A518F80159
:1011100065A376A387A390A72196C430D105C1F615
:10112000DF91CF911F910F91FF90EF90DF90CF90C3
:10113000BF9008950E941F080E94A40580916F002F
:10114000826080936F008091ED028111FCCF10923C
:10115000ED021092EC020895CF93DF93EC016AEF59
:1011600070E080E090E00E9494156A817B818C8120
:101170009D810E941719AB01BC0180E090E00E94A4
:10118000C3046E817F81888599850E941719AB0100
:10119000BC0181E090E00E94C3046A857B858C8558
:1011A0009D850E941719AB01BC0182E090E00E946E
:1011B000C3046E857F85888999890E941719AB01C0
:1011C000BC0183E090E00E94C304DF91CF910C94B6
:1011D0009A08CF92DF92EF92FF9220E030E06A010E
:1011E0007B01022E04C0F694E794D794C7940A9426
:1011F000D2F7FC01C192CF01285F3F4F2032310569
:1012000071F7FF90EF90DF90CF9008954F925F922B
:101210006F927F92AF92BF92CF92DF92EF92FF9246
:101220000F931F93CF93DF93EC017B018A81FB0126
:1012300080838B8181838C8182838D818383DB0199
:10124000179640E050E0BA01E4E0F0E04A805B80AD
:101250006C807D808F010C5F1F4F4415550566051E
:101260007705C0F48A859B85E80FF91F3497D080F5
:10127000218192818381FD013397D0823196208331
:10128000319690838C93F8014F5F5F4F6F4F7F4F84
:101290001496DCCFEE0DFF1D8C8580838D858183B8
:1012A0008E8582838F85838380E090E040E050E0EC
:1012B000BA014C845D846E847F84F701E00FF11FD6
:1012C0000C5F1F4F4415550566057705B8F4AC89CA
:1012D000BD89A80FB91FCC901196DC90119712967A
:1012E0003C91129713962C91C082D1823283238332
:1012F0004F5F5F4F6F4F7F4F0496DBCF8E898083A8
:101300008F898183888D8283898D8383412C512CA1
:1013100032018E899F89A88DB98D481659066A06B3
:101320007B0680F55201AA0CBB1CEC8DFD8DEA0DED
:10133000FB1DA081B181FD0101900020E9F73197EB
:101340006F01CA1ADB0AA60160E070E0C701800FD6
:10135000911F0E94E9080C5F1F4F8C8D9D8DFC0131
:10136000EA0DFB1D60817181A601C701800F911FED
:101370000E94EB1A0C0D1D1DFFEF4F1A5F0A6F0A3A
:101380007F0AC7CFC801DF91CF911F910F91FF90C6
:10139000EF90DF90CF90BF90AF907F906F905F9075
:1013A0004F900895EF92FF920F931F93CF93DF9387
:1013B0008C017B01EC018A81FB018193AB81BC81B3
:1013C000ED0109900020E9F72197CA1BDB0BAE0164
:1013D00060E070E0CF010E94E908F8016381748148
:1013E000AE01C70105960E94EB1ACE010596DF916A
:1013F000CF911F910F91FF90EF900895CF92DF92C0
:10140000EF92FF920F931F93CF93DF936C01EB0149
:10141000FC018281888383818983A481B581FD0158
:1014200001900020E9F731978F010A1B1B0BA801DF
:1014300060E070E0CE0102960E94E908F601648146
:101440007581A801CE0106960E94EB1AC801069686
:10145000F601A681B781FD0101900020E9F73197DF
:101460007F01EA1AFB0AA70160E070E08C0F9D1F64
:101470000E94E908065F1F4FF60166817781A70188
:10148000CE01800F911F0E94EB1A0E0D1F1DF60159
:10149000A085B185FD0101900020E9F731977F011A
:1014A000EA1AFB0AA70160E070E0CE01800F911FED
:1014B0000E94E9080C5F1F4FF60160857185A70146
:1014C000CE01800F911F0E94EB1AC8018E0D9F1D47
:1014D000F6016285438534852585C80FD91F688349
:1014E00049833A832B830496DF91CF911F910F910B
:1014F000FF90EF90DF90CF900895CF92DF92EF9220
:10150000FF92FC011082118212821382DB0120E023
:1015100030E04D9150E0022E02C0440F551F0A9456
:10152000E2F7052E000C660B770BC080D180E280BD
:10153000F3804C295D296E297F2940835183628382
:101540007383285F3F4F2032310519F7FF90EF90EA
:10155000DF90CF9008958F929F92AF92BF92CF92DB
:10156000DF92EF92FF920F931F93CF93DF9300D000
:1015700000D0CDB7DEB77C018B01FB018191BF01AB
:10158000F7018283CE0101960E947D0A89819A81AA
:10159000AB81BC814C015D01F5E08F0E911CA11C5B
:1015A000B11C680125E0C20ED11CA601401B510BE5
:1015B00060E070E0481559056A057B0548F4F601BE
:1015C00041916F019F0122503109F9014083EDCF14
:1015D000F801E80FF91F14820C5F1F4FF701148305
:1015E000038305960F900F900F900F90DF91CF918E
:1015F0001F910F91FF90EF90DF90CF90BF90AF9031
:101600009F908F9008954F925F926F927F928F92EA
:101610009F92AF92BF92CF92DF92EF92FF920F9381
:101620001F93CF93DF93CDB7DEB72C970FB6F89407
:10163000DEBF0FBECDBF7C018B01DB018C9190E042
:10164000F7019383828311962C91922B938382834B
:101650006E5F7F4FCE0109960E947D0A89849A842D
:10166000AB84BC84B501A4014A5F5F4F6F4F7F4FCD
:10167000F8013696CF01801B910BA0E0B0E08417F3
:101680009507A607B70728F48191DF0112978C937D
:10169000F1CFF801E80DF91D1582C8010596D701B3
:1016A00015969C938E931497B4016A5F7F4F600FD9
:1016B000711FCE0105960E947D0ABAE08B0E911C27
:1016C0004D815E816F8178852401092C000C6608AC
:1016D0007708440E551E661E771EF801E80DF91DA9
:1016E000CF01801B910BA0E0B0E084159505A60505
:1016F000B70528F48191DF0112978C93F1CF640133
:10170000C40ED51EB8016C0D7D1DFB0131971082F2
:10171000C4010197800F911FF70197838683CE0143
:1017200001960E947D0AA6014C5F5F4F49805A8056
:101730006B807C804A01052E000CAA08BB08840C33
:10174000951CA61CB71CF801E40FF51F9F01201B78
:10175000310BC901A0E0B0E088159905AA05BB05C9
:1017600028F48191DF0112978C93F0CFCA01840D88
:10177000951DF801E80FF91FDF0111971C929A01DE
:1017800021503109020F131FD70119961C930E9394
:1017900018972181428150E060E070E0BA0155273E
:1017A0004427522B2081422B2381722BF701428741
:1017B00053876487758704962C960FB6F894DEBF1E
:1017C0000FBECDBFDF91CF911F910F91FF90EF9092
:1017D000DF90CF90BF90AF909F908F907F906F9051
:1017E0005F904F9008952F923F924F925F926F9229
:1017F0007F928F929F92AF92BF92CF92DF92EF92A1
:10180000FF920F931F93CF93DF93CDB7DEB7289747
:101810000FB6F894DEBF0FBECDBF8C015B01DB01BC
:101820008C9111969C9111971296CC901297D12C75
:10183000E12CF12C7601DD24CC24D92AC82A139678
:101840008C91F82AF80182819381A481B5818C154D
:101850009D05AE05BF0570F4B601660F771F660FD4
:10186000771F828593850E946E12D8011B969C93E8
:101870008E931A97F801C282D382E482F582D50151
:101880001796C12CD12C7601F4E08F2E912C980163
:101890002A5F3F4FF8014281538164817581C40101
:1018A0000496C416D506E606F70680F54C9150E07E
:1018B00060E070E0742F662755274427FD013397B9
:1018C000E0814E2BFD013297E0815E2BFD013197C7
:1018D000E0816E2BF80146835783608771874C0146
:1018E000089742855385840F951FF90140815181E6
:1018F00062817381FC014083518362837383FFEFB4
:10190000CF1ADF0AEF0AFF0A1496C4CFF401EA0DDA
:10191000FB1D20813181C280D12CE12CF12C76017C
:10192000DD24CC24D32AC22A2381F22A4C01F801D7
:1019300084859585A685B7858C159D05AE05BF0563
:1019400070F4B601660F771F660F771F848995893B
:101950000E946E12D80155969C938E935497F8016D
:10196000C486D586E686F78620E030E0C12CD12CEF
:101970007601D8015096F8014485558566857785AE
:10198000F501E80DF91DC4010496C416D506E60656
:10199000F70648F59180428150E060E070E0BA01BE
:1019A00055274427592990804929E3817E2BF80146
:1019B000408B518B628B738B4C0184899589FC0120
:1019C000E20FF31F4D915D916D917C9113974083D0
:1019D000518362837383FFEFCF1ADF0AEF0AFF0A96
:1019E0002C5F3F4FC8CF20813181C280D12CE12CA8
:1019F000F12C7601DD24CC24D32AC22A2381F22AB9
:101A00004C01F80186899789A08DB18D8C159D05B3
:101A1000AE05BF0560F4B601660F771F848D958D06
:101A20000E946E12D8015D969C938E935C97F8018C
:101A3000C68AD78AE08EF18E412C512C32011801D2
:101A4000FAE12F0E311CF80186899789A08DB18D9E
:101A5000481659066A067B0608F05AC0B501680D9B
:101A6000791DCE0101960E947D0A94012C5F3F4FA3
:101A7000C980DA80EB80FC80C901032E000CAA0B20
:101A8000BB0BAC01BD014C0D5D1D6E1D7F1D4D835B
:101A90005E836F837887F501E20FF31FAF014A1968
:101AA0005B09CA01A0E0B0E04D815E816F8178855D
:101AB00084179507A607B70728F44191DF0112970D
:101AC0004C93ECCFC9018C0D9D1DF501E80FF91F5A
:101AD00031971082215031092A0D3B1DD8015B96A8
:101AE0003C932E935A974C01C201880F991F5C9624
:101AF000ED91FC915D97E80FF91FD1018D919C91BB
:101B000091838083BFEF4B1A5B0A6B0A7B0A9BCFE2
:101B1000C40128960FB6F894DEBF0FBECDBFDF918B
:101B2000CF911F910F91FF90EF90DF90CF90BF90DA
:101B3000AF909F908F907F906F905F904F903F906D
:101B40002F9008950F931F93CF93DF93CDB7DEB7F8
:101B50002A970FB6F894DEBF0FBECDBF8C0181E887
:101B600092E09A8389831B821C821D821E821F82BF
:101B7000188619861A86D801ED91FC910190F081A2
:101B8000E02DAE014F5F5F4F6AE070E0C80109953C
:101B90000E946315F80160877187828793872A9670
:101BA0000FB6F894DEBF0FBECDBFDF91CF911F916E
:101BB0000F9108954F925F926F927F92AF92BF9272
:101BC000CF92DF92EF92FF920F931F93CF93DF9309
:101BD000CDB7DEB72E970FB6F894DEBF0FBECDBFE0
:101BE0008C018DE892E09A8389831C821B828EE3AC
:101BF00092E09E838D8398878F839A8789871B863F
:101C00001C861D861E86680188EBC81A8DEFD80ACF
:101C10007801A6E8EA1AADEFFA0A98E1492E5524B0
:101C20005394612C712CD601ED91FC913097B9F150
:101C3000848195819C838B83808191819E838D8318
:101C400082819381DC01ED91FC910480F581E02D8E
:101C5000099598878F83D601ED91FC9182819381BC
:101C6000DC01ED91FC910680F781E02D09959A87C2
:101C700089874B865C866D867E86F801808191819E
:101C8000F601A081B18118966D917C911997DC01C4
:101C9000ED91FC91AE014F5F5F4FC8010995B2E035
:101CA000CB0ED11CCE14DF0409F0BDCF6801E4E5F2
:101CB000CE1AEDEFDE0A88E1482E55245394612CAC
:101CC000712CF701A081B1811097E1F112968D91ED
:101CD0009C9113979C838B8314968D919C9115975F
:101CE0009E838D83ED91FC9111970480F581E02D09
:101CF000CD01099598878F83D7018D919C91DC0147
:101D0000ED91FC910680F781E02D09959A878987EE
:101D10004B865C866D867E86D801ED91FC91A08015
:101D2000B180F70180819181DC01ED91FC9102800D
:101D3000F381E02D0995AE014F5F5F4FBC01C801F3
:101D4000F5010995F2E0EF0EF11CEC14FD0409F029
:101D5000B8CFF801EA54FD4F81E080832E960FB68C
:101D6000F894DEBF0FBECDBFDF91CF911F910F91D1
:101D7000FF90EF90DF90CF90BF90AF907F906F90EB
:101D80005F904F9008958F929F92AF92BF92CF92A3
:101D9000DF92EF92FF920F931F93CF93DF93CDB714
:101DA000DEB72A970FB6F894DEBF0FBECDBF8C0109
:101DB0005B0181E892E09A8389831B821C821D82E9
:101DC0001E821F82188619861A860E946315F801E2
:101DD000C084D184E284F3849B01AC012C193D09B9
:101DE0004E095F0969017A01B501CE0101960E9491
:101DF000AC0088EE882E83E0982EA12CB12CC70170
:101E0000B601A50194010E94951ACB80DC80ED807B
:101E1000FE80C20ED31EE41EF51ECB82DC82ED8254
:101E2000FE829B01AC0160E472E48FE090E00E94CE
:101E3000711ACF80D884E984FA84DC01CB018C0D3F
:101E40009D1DAE1DBF1D8F839887A987BA870E94ED
:101E50006315CB80DC80ED80FE8031E0C31AD108B1
:101E6000E108F108A50194010E94951AC21AD30A4B
:101E7000E40AF50AF801C486D586E686F786CF809F
:101E8000D884E984FA84F6E3DF1AF5E6EF0AF4EC85
:101E9000FF0A9B01AC0160E472E48FE090E00E94D5
:101EA000711AC61AD70AE80AF90AF801C08AD18A53
:101EB000E28AF38AB801605F7F4FC8010C960E94E6
:101EC00005180E946315F801E554FD4F6083718386
:101ED000828393832A960FB6F894DEBF0FBECDBFE0
:101EE000DF91CF911F910F91FF90EF90DF90CF90F6
:101EF000BF90AF909F908F9008952F923F924F92F6
:101F00005F926F927F928F929F92AF92BF92CF9289
:101F1000DF92EF92FF920F931F93CF93DF93CDB792
:101F2000DEB760970FB6F894DEBF0FBECDBF988BBB
:101F30008F870E9463154B015C012F8538892554DA
:101F40003D4F3E832D83F90180819181A281B38130
:101F5000A5019401281B390B4A0B5B0BDA01C9015F
:101F6000893F9A42A105B10528F0EF85F889EA5426
:101F7000FD4F10820F85188904551D4FD8018D9192
:101F80009C91892B81F0EF85F889E154FD4F808188
:101F90009181A281B38188159905AA05BB0518F422
:101FA000F801118210826F847888FCE46F1AFDEFCB
:101FB0007F0A2F85388920553D4F3A832983CF8466
:101FC000D88838E1C30ED11C4F8558894A545D4FDB
:101FD00058874F832F8538892C533D4F3A8729875F
:101FE0004F8558894D535D4F5C874B87EF84F88848
:101FF00052E5E51A5DEFF50A2F8538892E543D4FDD
:102000003C832B834F85588941545D4F5E874D87B4
:102010001401250154E1250E311C411C511CEF8592
:10202000F88984899589A689B789892B8A2B8B2B76
:1020300089F4AF85B88912968D919C911397DC0134
:10204000ED91FC910680F781E02D09959C0197FFA9
:1020500015C037C10E946315DC01CB0188199909AD
:10206000AA09BB09EF85F8892489358946895789EA
:10207000281739074A075B07E0F64BC1D3018D915A
:102080009C911197820F931F8D939C93F80140812F
:10209000518147305105D9F4AB81BC818D919C9120
:1020A0001197AC014F5F5F4F4D935C93EF85F889BB
:1020B000E80FF91F208FF7018081918101979183AB
:1020C0008083892B09F0ABCF88E090E02FC04115C9
:1020D000510521F52F3F310569F481E090E0F801C9
:1020E00091838083AD85BE852D923D924D925C9209
:1020F000139795CF0E946315DC01CB0188199909CC
:10210000AA09BB0989389341A105B10508F487CF15
:10211000EF85F889EA54FD4F1082FBC0413051052C
:10212000B1F42E3F310531F482E090E0D8018D9377
:102130009C9375CFF80111821082AF81B8858C9184
:1021400081116DCF8F8598890E94A20D68CF423092
:10215000510569F4F70131832083AB81BC811D9265
:102160001C9283E090E0F801918380832EC043307D
:10217000510561F4322F2227F70180819181280FC8
:10218000391F3183208384E090E0D0CF4430510563
:1021900081F460E071E00E94811A8F3F910531F473
:1021A00085E090E0F8019183808339CF118210821D
:1021B00036CF4530510569F4E981FA8131832083B6
:1021C000E6E0F0E0D801ED93FC93D3012D933C932E
:1021D00026CF4630510599F4322F2227E981FA8122
:1021E00080819181280F391F31832083E7E0F0E05F
:1021F000D801ED93FC93D7018D919C9162CF48302B
:10220000510509F00CCFF8011182108260E071E0F5
:102210000E94811A8F3F910509F001CFA981BA81EF
:102220008D919C910097C9F48F8598890E94A20D89
:102230008F8598890E94DA0DEF85F889E954FD4F62
:1022400080829182A282B382ED81FE81808291821E
:10225000A282B3828FEF9FEF61C08A30910531F483
:10226000B6018F8598890E94C30ED9CE863091051C
:1022700051F4B60189859A850E94F30B81E0AB8504
:10228000BC858C93CCCE8B30910521F4EF81F88501
:102290001082C5CEFC01E752FF4FEE0FFF1F2F85C6
:1022A0003889E20FF31F80819181009709F4B7CE3E
:1022B000DC01ED91FC910190F081E02DB6010995D2
:1022C000AECEEF85F889EA54FD4F8081882321F155
:1022D0000F85188909541D4FF80180819181A281D1
:1022E000B381A5019401281B390B4A0B5B0BDA0162
:1022F000C901853C9940A105B10570F08F85988989
:102300000E94A20DD8018D929D92AD92BC9213971E
:1023100003C08EEF9FEF02C080E090E060960FB6A2
:10232000F894DEBF0FBECDBFDF91CF911F910F910B
:10233000FF90EF90DF90CF90BF90AF909F908F90E5
:102340007F906F905F904F903F902F90089589EE0F
:1023500093E00C947D0F89EC92E09093EA038093D4
:10236000E90384ED96E09093EC038093EB0380E027
:1023700091EEA0E0B0E08093ED039093EE03A09384
:10238000EF03B093F00310929F0685EA92E09093DA
:10239000AE068093AD061092AF061092B006109272
:1023A000B1061092B2061092B8061092B7061092BB
:1023B000B9061092BA061092BB061092BC06109293
:1023C000C2061092C1061092C3061092C406109263
:1023D000C5061092C6061092CA061092C906E1E31D
:1023E000F6E01192119286E0E336F807D1F7E3E6C2
:1023F000F6E01192119286E0E539F807D1F7E1E0B5
:10240000F4E0119285E0E931F807D9F7E9E1F5E068
:10241000119286E0E133F807D9F71092FD0310928C
:10242000FE031092FF031092000483ED92E090935C
:10243000C3038093C20381EB92E09093C90380931E
:10244000C8031092CA031092CB031092CC031092CF
:10245000CD031092CE031092CF031092D0031092AE
:10246000D1031092D2031092D3031092D40310928E
:10247000D5031092D6031092D7031092D80310926E
:10248000D9038DEB92E09093DB038093DA031092F3
:10249000DC038FE392E09093DE038093DD032AED6B
:1024A00033E03093E0032093DF0322E030E0309309
:1024B000E6032093E5039093C7038093C6038CEA59
:1024C00098E09093E8038093E7031092040310923E
:1024D000390310926E031092A30308956F927F92B6
:1024E0008F929F92AF92BF92CF92DF92EF92FF9224
:1024F0000F931F93CF93DF93EC01009789F4CB01E7
:10250000DF91CF911F910F91FF90EF90DF90CF90CF
:10251000BF90AF909F908F907F906F900C945713C7
:10252000FC01E60FF71F9C0122503109E217F30767
:1025300008F4ACC0D9010D911C911197061717072B
:10254000B0F00530110508F49FC0C8010497861744
:10255000970708F499C002501109061B170B019345
:1025600011936D937C93CF010E94EC138DC05B019E
:10257000A01AB10A4C01800E911EA0918007B09163
:10258000810740E050E0E12CF12C109709F44AC09B
:10259000A815B905D1F56D907C901197630182E083
:1025A000C80ED11CCA14DB0480F1A3014A195B09CF
:1025B0006A0182E0C80ED11C1296BC901297139645
:1025C000AC91B5E0CB16D10440F0B282A383518325
:1025D0004083D9016D937C930AC00E5F1F4FC301E6
:1025E000800F911FF90191838083EB2DFA2FE11465
:1025F000F10431F0D7011396FC93EE93129744C087
:10260000F0938107E09380073FC08D919C911197D3
:102610004817590708F4AC017D0112960D90BC9142
:10262000A02DB3CF80917E0790917F0788159905E3
:10263000E1F446175707C8F4809100019091010119
:10264000009741F48DB79EB7409104015091050168
:10265000841B950BE817F907C8F4F0937F07E09304
:102660007E07F901718360830FC0CB010E9457136D
:102670007C01009759F0A801BE010E94EB1ACE011F
:102680000E94EC13C70104C0CE0102C080E090E0BC
:10269000DF91CF911F910F91FF90EF90DF90CF903E
:1026A000BF90AF909F908F907F906F900895CF9341
:1026B000DF938230910510F482E090E0E091800792
:1026C000F091810720E030E0C0E0D0E0309711F1D8
:1026D0004081518148175907C0F04817590761F4E4
:1026E00082819381209719F09B838A832BC09093DA
:1026F00081078093800726C02115310519F0421704
:10270000530718F49A01BE01DF01EF010280F38143
:10271000E02DDCCF2115310509F1281B390B2430C0
:10272000310590F412968D919C9113976115710566
:1027300021F0FB019383828304C0909381078093EF
:102740008007FD01329644C0FD01E20FF31F819323
:102750009193225031092D933C933AC020917E07EA
:1027600030917F07232B41F4209102013091030126
:1027700030937F0720937E07209100013091010163
:102780002115310541F42DB73EB740910401509118
:102790000501241B350BE0917E07F0917F07E217BE
:1027A000F307A0F42E1B3F0B2817390778F0AC0174
:1027B0004E5F5F4F2417350748F04E0F5F1F509351
:1027C0007F0740937E078193919302C0E0E0F0E0A1
:1027D000CF01DF91CF9108950F931F93CF93DF9394
:1027E000009709F48CC0FC01329713821282009189
:1027F0008007109181070115110581F42081318135
:10280000820F931F20917E0730917F072817390789
:1028100079F5F0937F07E0937E0771C0D80140E01F
:1028200050E0AE17BF0750F412962D913C911397CC
:10283000AD012115310509F1D901F3CF9D01DA016F
:102840003383228360817181860F971F82179307DC
:1028500069F4EC0128813981260F371F2E5F3F4F25
:10286000318320838A819B8193838283452B29F442
:10287000F0938107E093800742C01396FC93EE9398
:102880001297ED01499159919E01240F351FE217CE
:10289000F30771F480819181840F951F0296119640
:1028A0009C938E938281938113969C938E9312971F
:1028B000E0E0F0E0D80112968D919C91139700977B
:1028C00019F0F8018C01F6CF8D919C9198012E5F43
:1028D0003F4F820F931F20917E0730917F0728176B
:1028E000390769F4309729F4109281071092800714
:1028F00002C01382128210937F0700937E07DF913C
:10290000CF911F910F910895833081F028F4813089
:1029100099F08230A1F008958630A9F08730B9F09F
:102920008430D1F4809180008F7D03C0809180003D
:102930008F7780938000089584B58F7702C084B527
:102940008F7D84BD08958091B0008F7703C0809102
:10295000B0008F7D8093B0000895CF93DF9390E017
:10296000FC01E458FF4F2491FC01E057FF4F849194
:10297000882361F190E0880F991FFC01E255FF4F19
:10298000C591D491FC01EC55FF4FA591B491611113
:1029900009C09FB7F8948881209582238883EC91A1
:1029A0002E230BC0623061F49FB7F8943881822FD8
:1029B000809583238883EC912E2B2C939FBF06C098
:1029C0008FB7F894E8812E2B28838FBFDF91CF91AA
:1029D00008951F93CF93DF93282F30E0F901E85932
:1029E000FF4F8491F901E458FF4FD491F901E0576A
:1029F000FF4FC491CC23C9F0162F81110E9484147B
:102A0000EC2FF0E0EE0FFF1FEC55FF4FA591B491B6
:102A10008FB7F894111105C09C91ED2FE095E92333
:102A200002C0EC91ED2BEC938FBFDF91CF911F9102
:102A300008951F920F920FB60F9211242F933F9378
:102A40008F939F93AF93BF938091CC069091CD06C7
:102A5000A091CE06B091CF063091CB0623E0230F94
:102A60002D3720F40196A11DB11D05C026E8230FC6
:102A70000296A11DB11D2093CB068093CC069093A6
:102A8000CD06A093CE06B093CF068091D00690914C
:102A9000D106A091D206B091D3060196A11DB11D19
:102AA0008093D0069093D106A093D206B093D3061C
:102AB000BF91AF919F918F913F912F910F900FBE3A
:102AC0000F901F9018952FB7F8946091CC067091D5
:102AD000CD068091CE069091CF062FBF08953FB7C7
:102AE000F8948091D0069091D106A091D206B09131
:102AF000D30626B5A89B05C02F3F19F00196A11D4E
:102B0000B11D3FBFBA2FA92F982F8827820F911D83
:102B1000A11DB11DBC01CD0142E0660F771F881FCA
:102B2000991F4A95D1F70895CF92DF92EF92FF92C5
:102B3000CF93DF936B017C010E946F15EB01C114F1
:102B4000D104E104F10479F00E946F156C1B7D0B38
:102B5000683E7340A0F381E0C81AD108E108F1088B
:102B6000C851DC4FECCFDF91CF91FF90EF90DF9019
:102B7000CF900895789484B5826084BD84B58160D7
:102B800084BD85B5826085BD85B5816085BDEEE675
:102B9000F0E0808181608083E1E8F0E01082808154
:102BA00082608083808181608083E0E8F0E08081C2
:102BB00081608083E1EBF0E0808184608083E0EBE2
:102BC000F0E0808181608083EAE7F0E080818460CA
:102BD0008083808182608083808181608083808126
:102BE000806880831092C1000895FC01248535859A
:102BF000F901E05CFF4F8081918132962081318123
:102C0000821B930B8F7399270895DC011C96ED911D
:102C1000FC911D97DF01A05CBF4F2D913C91119756
:102C200012968D919C9111972817390739F08D9143
:102C30009C91E80FF91F808190E008958FEF9FEF3E
:102C40000895FC01A485B585FD01E05CFF4F20815E
:102C500031813296808191812817390779F08081FE
:102C60009181A80FB91F8C91208131812F5F3F4F37
:102C70002F7333273183208390E008958FEF9FEFE8
:102C80000895FC0181A1882329F0A489B5898C913C
:102C900086FFFBCF11A208950F931F93CF93DF936D
:102CA000FC01A685B7858D01005C1F4FE801888176
:102CB000998101968F739927AD014E5B5F4FEA01B1
:102CC0002881398182179307D1F3E801288139815E
:102CD000A20FB31F6C93A685B785A05CBF4F11965A
:102CE0009C938E93A689B7892C9181E090E0078C04
:102CF00002C0880F991F0A94E2F7822B8C9381E01F
:102D000081A30488F589E02D80818064808381E03F
:102D100090E0DF91CF911F910F91089508951F9238
:102D20000F920FB60F9211242F934F935F938F93AF
:102D30009F93EF93FF938091C00082FD1CC0209170
:102D4000C60080917A0790917B0701968F7399272F
:102D500040917C0750917D078417950771F0E091B1
:102D60007A07F0917B07E65CF84F208390937B070E
:102D700080937A0702C08091C600FF91EF919F91E6
:102D80008F915F914F912F910F900FBE0F901F90D9
:102D9000189584ED96E00E94F515892B11F00C949E
:102DA0008E1608951F920F920FB60F9211242F9333
:102DB0003F938F939F93EF93FF932091360730912A
:102DC000370780913807909139072817390731F470
:102DD0008091C1008F7D8093C10014C0E0913807BD
:102DE000F0913907EA50F94F20818091380790918E
:102DF000390701968F739927909339078093380785
:102E00002093C600FF91EF919F918F913F912F9159
:102E10000F900FBE0F901F901895CF92DF92EF92F8
:102E2000FF920F931F93CF93DF93EC016A017B0115
:102E30004115514E6105710509F1EC89FD8981E06B
:102E400090E008A002C0880F991F0A94E2F78083DF
:102E500060E079E08DE390E0A70196010E94951A69
:102E600089019A01015011092109310936952795E7
:102E700017950795980101151041A8F0EC89FD8977
:102E8000108260E874E88EE190E0A70196010E944C
:102E9000951ADA01C9010197A109B109B695A7955B
:102EA000979587959C01E889F9893083EA89FB89A0
:102EB000208319A2EE89FF89408181E090E09C0186
:102EC0000C8C02C0220F331F0A94E2F7242B2083BC
:102ED000EE89FF8940819C010D8C02C0220F331FB7
:102EE0000A94E2F7242B2083EE89FF8940819C011C
:102EF0000E8C02C0220F331F0A94E2F7242B20838A
:102F0000EE89FF8920810F8C02C0880F991F0A94D7
:102F1000E2F7809582238083DF91CF911F910F91FB
:102F2000FF90EF90DF90CF900895E4EDF6E01382EC
:102F3000128288EE93E0A0E0B0E084839583A683BC
:102F4000B7838FED92E0918380838AE397E0958742
:102F5000848786EF96E09787868785EC90E0918B53
:102F6000808B84EC90E0938B828B80EC90E0958B4F
:102F7000848B81EC90E0978B868B82EC90E0918F34
:102F8000808F86EC90E0938F828F84E0848F83E043
:102F9000858F87E0868F85E0878F81E080A3089505
:102FA0000E94BA150E94B002C9ECD6E10E94A71196
:102FB0002097E1F30E94C916F9CFCF92DF92EF92EA
:102FC000FF920F931F93CF93DF936C01EB017B0173
:102FD000E40EF51E00E010E0CE15DF0561F069910A
:102FE000D601ED91FC910190F081E02DC60109958B
:102FF000080F191FF1CFC801DF91CF911F910F91D9
:10300000FF90EF90DF90CF900895CF92DF92EF92F4
:10301000FF920F931F93CF93DF938C01EB01688195
:1030200079818A819B8120E03AEC4AE95BE30E9446
:10303000951AF801C080D180E280F380C20ED31EC1
:10304000E41EF51EC082D182E282F3826883798316
:103050008A839B83DF91CF911F910F91FF90EF9017
:10306000DF90CF9008955058BB27AA270E944B1895
:103070000C94C5190E94B71938F00E94BE1920F0AF
:1030800039F49F3F19F426F40C94B4190EF4E0952A
:10309000E7FB0C94AE19E92F0E94D61958F3BA1722
:1030A000620773078407950720F079F4A6F50C945E
:1030B000F8190EF4E0950B2EBA2FA02D0B01B901D3
:1030C00090010C01CA01A0011124FF27591B99F09E
:1030D000593F50F4503E68F11A16F040A22F232FAA
:1030E000342F4427585FF3CF469537952795A795FA
:1030F000F0405395C9F77EF41F16BA0B620B730BA1
:10310000840BBAF09150A1F0FF0FBB1F661F771F11
:10311000881FC2F70EC0BA0F621F731F841F48F4C6
:10312000879577956795B795F7959E3F08F0B0CF4F
:103130009395880F08F09927EE0F97958795089536
:103140000E948A1908F481E008950E94B9180C942D
:10315000C5190E94BE1958F00E94B71940F029F411
:103160005F3F29F00C94AE1951110C94F9190C948D
:10317000B4190E94D61968F39923B1F3552391F33A
:10318000951B550BBB27AA2762177307840738F0D6
:103190009F5F5F4F220F331F441FAA1FA9F335D033
:1031A0000E2E3AF0E0E832D091505040E695001CE7
:1031B000CAF72BD0FE2F29D0660F771F881FBB1FA1
:1031C000261737074807AB07B0E809F0BB0B802D7F
:1031D000BF01FF2793585F4F3AF09E3F510578F0AB
:1031E0000C94AE190C94F9195F3FE4F3983ED4F3B4
:1031F000869577956795B795F7959F5FC9F7880F7F
:10320000911D9695879597F90895E1E0660F771FD0
:10321000881FBB1F621773078407BA0720F0621B61
:10322000730B840BBA0BEE1F88F7E09508950E948C
:103230001E196894B1110C94F91908950E94DE19B1
:1032400088F09F5798F0B92F9927B751B0F0E1F067
:10325000660F771F881F991F1AF0BA95C9F714C017
:10326000B13091F00E94F819B1E008950C94F8196A
:10327000672F782F8827B85F39F0B93FCCF3869550
:1032800077956795B395D9F73EF4909580957095AD
:1032900061957F4F8F4F9F4F0895E89409C097FB2A
:1032A0003EF490958095709561957F4F8F4F9F4F1D
:1032B0009923A9F0F92F96E9BB279395F695879561
:1032C00077956795B795F111F8CFFAF4BB0F11F424
:1032D00060FF1BC06F5F7F4F8F4F9F4F16C08823CB
:1032E00011F096E911C0772321F09EE8872F762F01
:1032F00005C0662371F096E8862F70E060E02AF042
:103300009A95660F771F881FDAF7880F969587952D
:1033100097F90895990F0008550FAA0BE0E8FEEF02
:1033200016161706E807F907C0F012161306E40789
:10333000F50798F0621B730B840B950B39F40A2682
:1033400061F0232B242B252B21F408950A2609F460
:10335000A140A6958FEF811D811D089597F99F6764
:1033600080E870E060E008959FEF80EC089500240D
:103370000A941616170618060906089500240A94DA
:1033800012161306140605060895092E0394000C60
:1033900011F4882352F0BB0F40F4BF2B11F460FFEF
:1033A00004C06F5F7F4F8F4F9F4F089557FD905818
:1033B000440F551F59F05F3F71F04795880F97FBF9
:1033C000991F61F09F3F79F08795089512161306B3
:1033D0001406551FF2CF4695F1DF08C016161706E2
:1033E0001806991FF1CF8695710561050894089517
:1033F000E894BB2766277727CB0197F908950E94A9
:103400008A1908F48FEF08950E94171A0C94C519B1
:103410000E94B71938F00E94BE1920F0952311F0D0
:103420000C94AE190C94B41911240C94F9190E943F
:10343000D61970F3959FC1F3950F50E0551F629F09
:10344000F001729FBB27F00DB11D639FAA27F00DFD
:10345000B11DAA1F649F6627B00DA11D661F829F24
:103460002227B00DA11D621F739FB00DA11D621F09
:10347000839FA00D611D221F749F3327A00D611D26
:10348000231F849F600D211D822F762F6A2F112408
:103490009F5750409AF0F1F088234AF0EE0FFF1F3B
:1034A000BB1F661F771F881F91505040A9F79E3F92
:1034B000510580F00C94AE190C94F9195F3FE4F3B8
:1034C000983ED4F3869577956795B795F795E795E8
:1034D0009F5FC1F7FE2B880F911D9695879597F9F1
:1034E0000895DB018F939F930E94B71ABF91AF910C
:1034F000A29F800D911DA39F900DB29F900D11244E
:10350000089597FB072E16F4009407D077FD09D095
:103510000E94C21A07FC05D03EF4909581959F4FFA
:103520000895709561957F4F0895A1E21A2EAA1B08
:10353000BB1BFD010DC0AA1FBB1FEE1FFF1FA21763
:10354000B307E407F50720F0A21BB30BE40BF50B60
:10355000661F771F881F991F1A9469F760957095E9
:10356000809590959B01AC01BD01CF0108950E940B
:10357000DC1AA59F900DB49F900DA49F800D911D06
:1035800011240895AA1BBB1B51E107C0AA1FBB1F32
:10359000A617B70710F0A61BB70B881F991F5A95DF
:1035A000A9F780959095BC01CD010895EE0FFF1FFE
:1035B0000590F491E02D0994A29FB001B39FC00142
:1035C000A39F700D811D1124911DB29F700D811D4F
:1035D0001124911D0895FB01DC0102C001900D92A0
:0C35E00041505040D8F70895F894FFCFF8
:1035EC000000820780007374645F6D7367732F54DF
:1035FC00696D65006364373136366337346335354E
:10360C0032633331316662636332666535613762CA
:10361C006332383900726F7373657269616C5F6DF8
:10362C007367732F546F706963496E666F003061F6
:10363C006435316638386663343438393266386309
:10364C003130363834303737363436303035007226
:10365C006F7373657269616C5F6D7367732F4C6FF9
:10366C00670031316162643733316332353933335A
:10367C003236316364363138336264313264363217
:10368C003935003966306539386264613635393818
:10369C00313938366464663533616661376134308C
:1036AC006534390039346232323866363137383560
:1036BC0031623039633364653166346138363534A0
:1036CC00663838380030303166646533636162398E
:1036DC0065333133613135303431366666303963B8
:1036EC003038656534004D657373616765206672AB
:1036FC006F6D206465766963652064726F707065A8
:10370C00643A206D657373616765206C61726765DF
:10371C0072207468616E206275666665722E006D2B
:10372C006F746F72506F736500726F73736572692B
:10373C00616C5F6D7367732F52657175657374502F
:10374C006172616D006D6F746F725F636F6E747216
:10375C006F6C2F6D6F746F72506F7365000000008B
:10376C00008800AC00F200F50000000000FE090328
:10377C000BF800FB0000000000D209AB0AFE0001B0
:10378C0001000000000609F30B0401070100000012
:10379C00000A014E019F01A20100000000A501AC2E
:1037AC0001B301B601000000000B027D0FF6010011
:1037BC00000000C501ED01F001F301000000004C18
:0C37CC0016DD17F5152116051641160034
:00000001FF
