:100000000C945E000C9486000C9486000C94860080
:100010000C9486000C9486000C9486000C94860048
:100020000C9486000C9486000C9486000C94790342
:100030000C9486000C9486000C9486000C94860028
:100040000C94E3060C9486000C9445090C948809E2
:100050000C9486000C9486000C9486000C94860008
:100060000C9486000C94860000000007000201003A
:100070000003040600000000000000000102040864
:100080001020408001020408102001020408102002
:10009000040404040404040402020202020203032E
:1000A0000303030300000000250028002B000000CC
:1000B0000000240027002A00FF05470A11241FBE64
:1000C000CFEFD8E0DEBFCDBF11E0A0E0B1E0E8E7C0
:1000D000FAE102C005900D92A231B107D9F722E0F2
:1000E000A2E1B1E001C01D92AB39B207E1F710E027
:1000F000CEE5D0E004C02197FE010E94250DCC354D
:10010000D107C9F70E94BF070C943A0D0C94000068
:100110005C9A5C9808955E9A5E9808952A9A2A9847
:1001200008952C9A2C980895682F85E00C94B406B5
:10013000682F87E00C94B406682F8BE00C94B4060B
:10014000682F8DE00C94B40640E052EC61E070E062
:1001500081EF91E00E94C30961E082E00E9478068D
:1001600061E083E00E94780661E088E00E94780602
:1001700061E089E00E94780661E084E00E947806F0
:1001800061E085E00E94780661E086E00E947806E2
:1001900061E087E00E94780661E08AE00E947806CC
:1001A00061E08BE00E94780661E08CE00E947806B6
:1001B00061E08DE00E94780660E082E00E94B40673
:1001C00061E083E00E94B40660E088E00E94B4062B
:1001D00061E089E00E94B406F89410928000E1E8A2
:1001E000F0E01082109285001092840088EE93E077
:1001F00090938900809388008081886080838081CB
:10020000836080837894E4E1F1E084E990E0918771
:10021000808788E890E09387828740E050E06AE733
:1002200074E4408351836283738382E390E0A0E0AF
:10023000B0E084839583A683B78328E930E036AFA6
:1002400025AF2BE830E0309354012093530145ABA8
:1002500056AB67AB70AF81AF92AFA3AFB4AF2CE931
:1002600030E030938701209386012EE830E0309310
:1002700089012093880140937E0150937F01609310
:100280008001709381018093820190938301A093F8
:100290008401B093850120EA30E03093BC012093C3
:1002A000BB0121E930E03093BE012093BD014093B2
:1002B000B3015093B4016093B5017093B60180937C
:1002C000B7019093B801A093B901B093BA01089512
:1002D0008F929F92AF92BF92CF92DF92EF92FF9256
:1002E000CF93DF93EC01688179818A819B810E94A1
:1002F000950B7D876C876C857D8580E090E00E9402
:10030000C40B6BA77CA78DA79EA76BA57CA58DA50D
:100310009EA50E94950B6FA778AB89AB9AAB1CAAE0
:100320001BAA1AA619A6188E1F8A1E8A80E090E0C2
:10033000A0E8BFE38DA39EA3AFA3B8A76C817D8186
:100340008E819F81EC84FD840E94C40B4B015C0173
:10035000B70180E090E00E94C40B9B01AC01C50195
:10036000B4010E941C0B26E53EE04DE25FE30E94D3
:100370007B0C6B017C019B01AC010E947B0C20E09B
:1003800030E040E85FE30E94AA0A4B015C0120E0F4
:1003900030E040E050ECC701B6010E947B0C9B01AD
:1003A000AC01C501B4010E941C0B9B01AC010E9471
:1003B0007B0C0E94950B698F7A8F8B8F9C8FDF91BE
:1003C000CF91FF90EF90DF90CF90BF90AF909F9034
:1003D0008F9008952F923F924F925F926F927F92EB
:1003E0008F929F92AF92BF92CF92DF92EF92FF9245
:1003F0000F931F93CF93DF931B01FC0164857585D9
:1004000080E090E00E94C40B6B017C0105E010E0ED
:10041000C1E0D0E0812C912C5401C215D30538F5F0
:10042000A7019601C701B6010E94AB0A2B013C014E
:10043000B80180E090E00E94C40B9B01AC01C301B5
:10044000B2010E941C0B9B01AC01C701B6010E94C6
:10045000AA0A6B017C019B01AC01C501B4010E9499
:10046000AB0A4B015C0121960C5F1F4FD6CFC50133
:10047000B401DF91CF911F910F91FF90EF90DF902A
:10048000CF90BF90AF909F908F907F906F905F9034
:100490004F903F902F9008958F929F92AF92BF926E
:1004A000CF92DF92EF92FF920F931F93CF93DF9340
:1004B0005C016A017B0185E38A9D80018B9D100DA3
:1004C00011240C5E1E4FD8011896ED91FC911997DE
:1004D000DB01CA018827B7FD83959927AA27BB2787
:1004E00009951C141D041E041F041CF08FEF9FEFC0
:1004F00002C081E090E025E32A9DF0012B9DF00DE4
:100500001124EC5EFE4F938B828BF7FE08C0F094B3
:10051000E094D094C094C11CD11CE11CF11C85E373
:100520008A9DE0018B9DD00D1124CC5EDE4FDD8ACB
:10053000CC8AC8010E9468012091130181E090E0FB
:1005400001C0880FAA94EAF7822B80931301898D4A
:100550009A8DAB8DBC8D880F991FAA1FBB1F8C1560
:100560009D05AE05BF0560F5898D9A8DAB8DBC8D5F
:10057000880F991FAA1FBB1FC81AD90AEA0AFB0ACB
:10058000698D7A8D8B8D9C8DC8010E94EA014B018B
:100590005C016C817D818E819F81A70196010E9403
:1005A000E80C0E94C40B6B017C01A5019401C501FC
:1005B000B4010E94AB0A9B01AC01C701B6010BC09C
:1005C000C701B6019695879577956795C8010E94F2
:1005D000EA019B01AC010E94AB0A0E94950B6D8F52
:1005E0007E8F8F8F98A3DF91CF911F910F91FF90F6
:1005F000EF90DF90CF90BF90AF909F908F90089535
:100600000F931F93CF9380E090E04FE352E46FE0AD
:1006100070E0A5E32091130130E0082E02C035956B
:1006200027950A94E2F720FF11C0A89FF001A99F27
:10063000F00D1124EC5EFE4F07A510A921A932A9E7
:10064000041715072607370708F442C001968430BF
:10065000910501F71092120180E090E0C5E3A1E05E
:10066000B0E0C89FF001C99FF00D1124EC5EFE4F71
:1006700026892091130130E0082E02C03595279578
:100680000A94E2F720FF09C007A510A921A932A901
:10069000401751076207730701F1019684309105F5
:1006A00001F78091130181110BC080916F008D7F44
:1006B00080936F008CED9FEF90938900809388006A
:1006C0005093890040938800CF911F910F91089516
:1006D00047A550A961A972A9B9CFE09112019D0166
:1006E000082E01C0220F0A94EAF72E2B2093120144
:1006F000D4CF1F920F920FB60F9211242F923F92D8
:100700004F925F926F927F928F929F92AF92BF9221
:10071000CF92DF92EF92FF920F931F932F933F930D
:100720004F935F936F937F938F939F93AF93BF93F9
:10073000EF93FF93CF93DF9300D000D0CDB7DEB718
:1007400040908800509089008CED9FEF9093890035
:100750008093880000E010E065E3362E2224239485
:10076000612C712C8091130190E0002E02C09595B0
:1007700087950A94E2F780FF82C18091120190E090
:10078000002E02C0959587950A94E2F780FD14C06B
:10079000309EF001319EF00D1124EC5EFE4F87A5D6
:1007A00090A9A1A9B2A984199509A609B70987A793
:1007B00090ABA1ABB2AB63C1309E9001319E300DC6
:1007C00011242C5E3E4F3A832983D901D3962D9173
:1007D0003C91D49754968D919C9155972817390741
:1007E000A0F51A96ED91FC911B970995E981FA8184
:1007F00083A994A9019694AB83AB2289338946855A
:10080000578560897189C901330FAA0BBB0B840F0F
:10081000951FA61FB71F86879787A08BB18B23A92B
:1008200034A9848995892817390778F0268A909108
:10083000130121E030E0002E01C0220F0A94EAF7F4
:10084000822F8095892380931301309E9001319EE1
:10085000300D11242C5E3E4F3C832B83D9015796DB
:100860008D919C915897892B09F0A5C099968D91EF
:100870009C919A9701969A969C938E9399979B96A2
:10088000CD90DD90ED90FC909E979B966D917D9123
:100890008D919C919E979996ED91FC919A97FA83F0
:1008A000E9839B01AC010E94AB0A4B015C016981A9
:1008B0007A81660F771F660F771F6F5F7F4F80E02B
:1008C00090E00E94C40B9B01AC01C501B4010E94E1
:1008D0001C0B9B01AC01C701B6010E94AA0AAB81A7
:1008E000BC819B966D937D938D939C939E979B96D5
:1008F000CD90DD90ED90FC909E9714966D917D913A
:100900008D919C9117970E94C40B9B01AC01C7016C
:10091000B6010E94170B1816C4F0EB81FC816481AC
:100920007581868197810E94C40BAB81BC819B96A7
:100930006D937D938D939C939E97D3968D919C916F
:10094000D49758969C938E935797309EF001319E82
:10095000F00D1124EC5EFE4F23A934A984899589FA
:10096000969587952817390720F083A994A9908F29
:10097000878B309EF001319EF00D1124EC5EFE4F0E
:10098000FA83E983C3A4D4A4E5A4F6A461A172A167
:1009900083A194A10E94C40BA70196010E94AB0AF7
:1009A0000E94950BA981BA8191966D937D938D9349
:1009B0009C93949747C0EB81FC8123A934A9848937
:1009C00095894789508D841B950B28173907D0F1DD
:1009D000C3A4D4A4E5A4F6A461A572A5A1A4B2A45D
:1009E000660F771F660F771F6F5F7F4F80E090E085
:1009F0000E94C40BA70196010E947B0C6B017C0135
:100A0000B501660F771F660F771F6150710980E08F
:100A100090E00E94C40B9B01AC01C701B6010E948B
:100A20001C0BAB81BC819B966D937D938D939C93A6
:100A30009E9799968D919C919A9701979A969C93DF
:100A40008E939997309EF001319EF00D1124EC5E4B
:100A5000FE4FFA83E98363A574A585A596A525A114
:100A600036A147A150A50E947B0C0E94950BA9813D
:100A7000BA819F966D937D938D939C93D2970F5FD0
:100A80001F4F0430110509F06DCE0E940003109233
:100A90008500109284000F900F900F900F90DF91BF
:100AA000CF91FF91EF91BF91AF919F918F917F91E6
:100AB0006F915F914F913F912F911F910F91FF90F7
:100AC000EF90DF90CF90BF90AF909F908F907F90EE
:100AD0006F905F904F903F902F900F900FBE0F90B0
:100AE0001F901895BF92CF92DF92EF92FF920F93D3
:100AF0001F93CF93DF93C0E0D0E0C12CD12C7601BF
:100B000095E3B92E8091130190E00C2E02C09595CB
:100B100087950A94E2F780FF1DC0BC9E8001BD9EB0
:100B2000100D11240C5E1E4FF801658D768D878D9A
:100B300090A10E94C40BA70196010E94760C181682
:100B40004CF4F801658D768D878D90A10E94C40BC1
:100B50006B017C012196C430D105A1F620E030E084
:100B6000A901C701B6010E94170B882361F1C0E0FB
:100B7000D0E085E3B82E8091130190E00C2E02C0E6
:100B8000959587950A94E2F780FF19C0BC9E800175
:100B9000BD9E100D11240C5E1E4FF801658D768DE3
:100BA000878D90A10E94C40B9B01AC01C701B601C7
:100BB0000E941C0BF80165A376A387A390A721963A
:100BC000C430D105C1F6DF91CF911F910F91FF90F5
:100BD000EF90DF90CF90BF9008950E9472050E9421
:100BE000000380916F00826080936F0080911301F9
:100BF0008111FCCF109213011092120108951092EE
:100C00002A0110925F01109294011092C901089577
:100C1000CF92DF92EF92FF9281EF91E00E94AB08BA
:100C2000892BD1F381EF91E00E94AB0818161906C9
:100C30004CF581EF91E00E94A8080E948E0B6B0199
:100C40007C01AB01BC0180E090E00E944C02B70146
:100C5000A60181E090E00E944C02B701A60182E06B
:100C600090E00E944C02B701A60183E090E00E9450
:100C70004C020E94ED0562E370E080E090E00E948B
:100C80005E07D0CFFF90EF90DF90CF9008956091F6
:100C9000000181EF91E00E9402090C940806833064
:100CA00081F028F4813099F08230A1F008958630E7
:100CB000A9F08730B9F08430D1F4809180008F7D25
:100CC00003C0809180008F7780938000089584B561
:100CD0008F7702C084B58F7D84BD08958091B00068
:100CE0008F7703C08091B0008F7D8093B00008950E
:100CF000CF93DF9390E0FC01E458FF4F2491FC0177
:100D0000E057FF4F8491882361F190E0880F991F8D
:100D1000FC01E255FF4FC591D491FC01EC55FF4F0A
:100D2000A591B491611109C09FB7F894888120956D
:100D300082238883EC912E230BC0623061F49FB72D
:100D4000F8948881322F309583238883EC912E2B61
:100D50002C939FBF06C08FB7F894E8812E2B288371
:100D60008FBFDF91CF9108951F93CF93DF93282FEB
:100D700030E0F901E859FF4F8491F901E458FF4F41
:100D8000D491F901E057FF4FC491CC23C1F0162F45
:100D900081110E944F06EC2FF0E0EE0FFF1FEC5583
:100DA000FF4FA591B4919FB7F894111104C08C9195
:100DB000D095D82302C0EC91DE2BDC939FBFDF914E
:100DC000CF911F9108951F920F920FB60F92112489
:100DD0002F933F938F939F93AF93BF938091E9019C
:100DE0009091EA01A091EB01B091EC013091E80102
:100DF00023E0230F2D3720F40196A11DB11D05C05E
:100E000026E8230F0296A11DB11D2093E8018093CF
:100E1000E9019093EA01A093EB01B093EC0180917A
:100E2000ED019091EE01A091EF01B091F0010196DA
:100E3000A11DB11D8093ED019093EE01A093EF01F0
:100E4000B093F001BF91AF919F918F913F912F91FE
:100E50000F900FBE0F901F9018952FB7F8946091C8
:100E6000E9017091EA018091EB019091EC012FBFB3
:100E700008953FB7F8948091ED019091EE01A09113
:100E8000EF01B091F00126B5A89B05C02F3F19F0E6
:100E90000196A11DB11D3FBFBA2FA92F982F8827FA
:100EA000820F911DA11DB11DBC01CD0142E0660F55
:100EB000771F881F991F4A95D1F70895CF92DF9227
:100EC000EF92FF92CF93DF936B017C010E94390771
:100ED000EB01C114D104E104F10479F00E94390757
:100EE0006C1B7D0B683E7340A0F381E0C81AD108EB
:100EF000E108F108C851DC4FECCFDF91CF91FF90B2
:100F0000EF90DF90CF900895789484B5826084BD8F
:100F100084B5816084BD85B5826085BD85B58160FD
:100F200085BDEEE6F0E0808181608083E1E8F0E05D
:100F30001082808182608083808181608083E0E88C
:100F4000F0E0808181608083E1EBF0E0808184606B
:100F50008083E0EBF0E0808181608083EAE7F0E06D
:100F600080818460808380818260808380818160D1
:100F700080838081806880831092C10008950E94E0
:100F800084070E94A400CFE7D9E00E94470620977B
:100F9000E1F30E947F09F9CF0F931F93CF93DF9363
:100FA000EC010E942D07688779878A879B87E881F3
:100FB000F9810084F185E02DCE01099597FF17C0D6
:100FC0000E942D07088519852A853B85DC01CB0108
:100FD000801B910BA20BB30B0C811D812E813F81D5
:100FE00080179107A207B30710F38FEF9FEFDF91F0
:100FF000CF911F910F910895CF93DF93EC01CE0114
:101000000E94CC0797FD11C08D32910571F09C01B3
:10101000205331092A30310540F0E881F9810680FA
:10102000F781E02DCE010995EACFDF91CF910895A8
:101030004F925F926F927F92BF92CF92DF92EF9228
:10104000FF920F931F93CF93DF93EC01B62E0E9474
:10105000FC07E82F87FD6BC0C12CD12C80E8E82E5F
:101060008FE3F82E412C512C320110E000E0EB15FB
:1010700081F1ED3259F1EE3259F180ED8E0F8A3067
:1010800040F5AAE0B0E0A30192010E941A0D4E2E95
:10109000EE0F550866087708DC01CB01840D951D1D
:1010A000A61DB71D2C013D0120E3421A510861081D
:1010B0007108112371F02DEC3CEC4CEC5DE3C701A1
:1010C000B6010E947B0C6B017C0102C001E001C0F3
:1010D00011E0E881F9810680F781E02DCE010995C4
:1010E000CE010E94CC07E82F90ED980F9A3008F4BB
:1010F000BECF8E3209F4BBCFB81609F4B8CF0023A7
:1011000041F07094609450944094411C511C611CB7
:10111000711CC301B201112339F00E94C60BA70153
:1011200096010E947B0C06C00E94C60B03C060E0C3
:1011300070E0CB01DF91CF911F910F91FF90EF9065
:10114000DF90CF90BF907F906F905F904F90089509
:1011500061E00C941808FC0124853585F901E05CF8
:10116000FF4F80819181329620813181821B930BC8
:101170008F7399270895DC011C96ED91FC911D97C2
:10118000DF01A05CBF4F2D913C91119712968D917C
:101190009C9111972817390739F08D919C91E80F90
:1011A000F91F808190E008958FEF9FEF0895FC0173
:1011B000A485B585FD01E05CFF4F20813181329629
:1011C000808191812817390779F080819181A80F5A
:1011D000B91F8C91208131812F5F3F4F2F733327AF
:1011E0003183208390E008958FEF9FEF0895FC01F5
:1011F00081A1882329F0A489B5898C9186FFFBCF32
:1012000011A208950F931F93CF93DF93FC01A6853E
:10121000B7858D01005C1F4FE80188819981019697
:101220008F739927AD014E5B5F4FEA0128813981A9
:1012300028173907D1F3E80128813981A20FB31F9C
:101240006C93A685B785A05CBF4F11969C938E9337
:10125000A689B7892C9181E090E0078C02C0880FA5
:10126000991F0A94E2F7822B8C9381E081A3048872
:10127000F589E02D80818064808381E090E0DF91BA
:10128000CF911F910F91089508951F920F920FB65D
:101290000F9211242F934F935F938F939F93EF930C
:1012A000FF938091C00082FD1CC02091C6008091F8
:1012B0009702909198024091990250919A0201965A
:1012C0008F7399274817590771F0E0919702F091B1
:1012D0009802E95AFD4F20839093980280939702D9
:1012E00002C08091C600FF91EF919F918F915F9115
:1012F0004F912F910F900FBE0F901F90189581EF77
:1013000091E00E94AB08892B11F00C9444090895D8
:101310001F920F920FB60F9211242F933F938F932A
:101320009F93EF93FF932091530230915402809149
:101330005502909156022817390731F48091C10067
:101340008F7D8093C10014C0E0915502F091560248
:10135000ED5EFD4F208180915502909156020196DD
:101360008F73992790935602809355022093C6005D
:10137000FF91EF919F918F913F912F910F900FBE11
:101380000F901F901895CF92DF92EF92FF92CF931C
:10139000DF93EC016A017B014115514E6105710536
:1013A00009F1EC89FD8981E090E008A002C0880F76
:1013B000991F0A94E2F7808360E079E08DE390E082
:1013C000A70196010E94F80CDA01C9010197A10951
:1013D000B109B695A795979587959C01211580E150
:1013E0003807A8F0EC89FD89108260E874E88EE186
:1013F00090E0A70196010E94F80CDA01C90101975B
:10140000A109B109B695A795979587959C01E8899B
:10141000F9893083EA89FB89208319A2EE89FF8943
:10142000408181E090E09C010C8C02C0220F331FB0
:101430000A94E2F7242B2083EE89FF8940819C01E6
:101440000D8C02C0220F331F0A94E2F7242B208355
:10145000EE89FF8940819C010E8C02C0220F331F50
:101460000A94E2F7242B2083EE89FF8920810F8CD8
:1014700002C0880F991F0A94E2F780958223808327
:10148000DF91CF91FF90EF90DF90CF900895E1EF43
:10149000F1E01382128288EE93E0A0E0B0E0848352
:1014A0009583A683B78385E091E09183808387E568
:1014B00092E09587848783E192E09787868785EC21
:1014C00090E0918B808B84EC90E0938B828B80EC0E
:1014D00090E0958B848B81EC90E0978B868B82ECEF
:1014E00090E0918F808F86EC90E0938F828F84E0E4
:1014F000848F83E0858F87E0868F85E0878F81E00A
:1015000080A30895CF92DF92EF92FF920F931F93E3
:10151000CF93DF936C01EB017B01E40EF51E00E03D
:1015200010E0CE15DF0561F06991D601ED91FC91D7
:101530000190F081E02DC6010995080F191FF1CF28
:10154000C801DF91CF911F910F91FF90EF90DF9035
:10155000CF9008955058BB27AA270E94C20A0C9426
:101560003C0C0E942E0C38F00E94350C20F039F40F
:101570009F3F19F426F40C942B0C0EF4E095E7FB36
:101580000C94250CE92F0E944D0C58F3BA176207F2
:1015900073078407950720F079F4A6F50C946F0C77
:1015A0000EF4E0950B2EBA2FA02D0B01B90190017E
:1015B0000C01CA01A0011124FF27591B99F0593FC2
:1015C00050F4503E68F11A16F040A22F232F342F0A
:1015D0004427585FF3CF469537952795A795F04058
:1015E0005395C9F77EF41F16BA0B620B730B840B6D
:1015F000BAF09150A1F0FF0FBB1F661F771F881F25
:10160000C2F70EC0BA0F621F731F841F48F487957C
:1016100077956795B795F7959E3F08F0B0CF93956E
:10162000880F08F09927EE0F9795879508950E94E7
:10163000010C08F481E008950E94300B0C943C0CDE
:101640000E94350C58F00E942E0C40F029F45F3FA8
:1016500029F00C94250C51110C94700C0C942B0C4B
:101660000E944D0C68F39923B1F3552391F3951B18
:10167000550BBB27AA2762177307840738F09F5FB3
:101680005F4F220F331F441FAA1FA9F335D00E2E20
:101690003AF0E0E832D091505040E695001CCAF78D
:1016A0002BD0FE2F29D0660F771F881FBB1F261750
:1016B00037074807AB07B0E809F0BB0B802DBF0127
:1016C000FF2793585F4F3AF09E3F510578F00C94F6
:1016D000250C0C94700C5F3FE4F3983ED4F3869590
:1016E00077956795B795F7959F5FC9F7880F911D17
:1016F0009695879597F90895E1E0660F771F881F03
:10170000BB1F621773078407BA0720F0621B730BB5
:10171000840BBA0BEE1F88F7E09508950E94950B95
:101720006894B1110C94700C08950E94550C88F0C7
:101730009F5798F0B92F9927B751B0F0E1F0660F95
:10174000771F881F991F1AF0BA95C9F714C0B130D6
:1017500091F00E946F0CB1E008950C946F0C672F0C
:10176000782F8827B85F39F0B93FCCF38695779505
:101770006795B395D9F73EF49095809570956195EE
:101780007F4F8F4F9F4F0895E89409C097FB3EF419
:1017900090958095709561957F4F8F4F9F4F9923BE
:1017A000A9F0F92F96E9BB279395F695879577953C
:1017B0006795B795F111F8CFFAF4BB0F11F460FFFC
:1017C0001BC06F5F7F4F8F4F9F4F16C0882311F054
:1017D00096E911C0772321F09EE8872F762F05C068
:1017E000662371F096E8862F70E060E02AF09A9503
:1017F000660F771F881FDAF7880F9695879597F9F8
:101800000895990F0008550FAA0BE0E8FEEF161691
:101810001706E807F907C0F012161306E407F507E4
:1018200098F0621B730B840B950B39F40A2661F058
:10183000232B242B252B21F408950A2609F4A140FB
:10184000A6958FEF811D811D089597F99F6780E808
:1018500070E060E008959FEF80EC089500240A9402
:101860001616170618060906089500240A9412167B
:101870001306140605060895092E0394000C11F4AE
:10188000882352F0BB0F40F4BF2B11F460FF04C05B
:101890006F5F7F4F8F4F9F4F089557FD9058440FB4
:1018A000551F59F05F3F71F04795880F97FB991FBF
:1018B00061F09F3F79F0879508951216130614067C
:1018C000551FF2CF4695F1DF08C016161706180609
:1018D000991FF1CF86957105610508940895E894E4
:1018E000BB2766277727CB0197F908950E94010C43
:1018F00008F48FEF08950E948E0C0C943C0C0E940B
:101900002E0C38F00E94350C20F0952311F00C9429
:10191000250C0C942B0C11240C94700C0E944D0C73
:1019200070F3959FC1F3950F50E0551F629FF00132
:10193000729FBB27F00DB11D639FAA27F00DB11D4B
:10194000AA1F649F6627B00DA11D661F829F2227D4
:10195000B00DA11D621F739FB00DA11D621F839F5B
:10196000A00D611D221F749F3327A00D611D231F31
:10197000849F600D211D822F762F6A2F11249F577F
:1019800050409AF0F1F088234AF0EE0FFF1FBB1F82
:10199000661F771F881F91505040A9F79E3F510541
:1019A00080F00C94250C0C94700C5F3FE4F3983E8F
:1019B000D4F3869577956795B795F795E7959F5FEB
:1019C000C1F7FE2B880F911D9695879597F908957D
:1019D000DB018F939F930E941A0DBF91AF91A29F3D
:1019E000800D911DA39F900DB29F900D112408951D
:1019F000A1E21A2EAA1BBB1BFD010DC0AA1FBB1F13
:101A0000EE1FFF1FA217B307E407F50720F0A21B84
:101A1000B30BE40BF50B661F771F881F991F1A94F1
:101A200069F760957095809590959B01AC01BD011B
:101A3000CF0108950E942B0DA59F900DB49F900D8E
:101A4000A49F800D911D11240895EE0FFF1F059096
:101A5000F491E02D0994A29FB001B39FC001A39F10
:101A6000700D811D1124911DB29F700D811D1124D7
:081A7000911D0895F894FFCFC9
:101A780031000000000209820AAB08D708BB08F74A
:021A8800080054
:00000001FF
