:100000000C9437000C945F000C945F000C945F001C
:100010000C945F000C945F000C945F000C945F00E4
:100020000C945F000C945F000C945F000C945F00D4
:100030000C945F000C945F000C945F000C945F00C4
:100040000C9407060C945F000C94C4020C940703F4
:100050000C945F000C945F000C945F000C945F00A4
:100060000C945F000C945F008200C603880011248A
:100070001FBECFEFD8E0DEBFCDBF11E0A0E0B1E002
:10008000E2EAFDE002C005900D92A831B107D9F770
:1000900021E0A8E1B1E001C01D92A73DB207E1F760
:1000A00010E0C6E3D0E004C02197FE010E94AE0636
:1000B000C433D107C9F70E941E020C94C4060C94E5
:1000C000000040E855E260E070E080E291E00E94CC
:1000D000420368EC70E089E191E00C946201809148
:1000E0001801882371F069E171E080E291E00E94DB
:1000F0001F0166E071E089E191E00E94B501109274
:100100001801089566E071E089E191E00C949F0187
:1001100089E191E00C943101CF93DF93D1E080E24B
:1001200091E00E942B02892B79F080E291E00E94FD
:100130005702C82F682F89E191E00E94FA01CA3066
:1001400071F7D0931801EBCFDF91CF910895CF9243
:10015000DF92EF92FF920F931F93CF93DF936C0187
:10016000EB017B01E40EF51E00E010E0CE15DF058B
:1001700061F06991D601ED91FC910190F081E02D43
:10018000C6010995080F191FF1CFC801DF91CF9162
:100190001F910F91FF90EF90DF90CF900895AF9255
:1001A000BF92CF92DF92EF92FF920F931F93CF9364
:1001B000DF937C016B01C0E0D0E000E010E0D601ED
:1001C00014968D919C911597C817D90788F4D7017B
:1001D000ED91FC91A080B180BE01C6010E940D028C
:1001E000682FC701F5010995080F191F2196E7CF60
:1001F000C801DF91CF911F910F91FF90EF90DF9099
:10020000CF90BF90AF900895DC01ED91FC910190EB
:10021000F081E02D09940F931F93CF93DF93EC01AE
:100220006DE00E9404018C016AE0CE010E9404018D
:10023000800F911FDF91CF911F910F9108950F9320
:100240001F93CF93DF93EC010E94CF008C01CE016E
:100250000E940B01800F911FDF91CF911F910F9191
:100260000895FC01808191810C947E05CF93DF93EA
:10027000EC0188819981009711F00E947E05198216
:1002800018821D821C821B821A82DF91CF910895F1
:100290000F931F93CF93DF93EC018B016F5F7F4F21
:1002A000888199810E940104009731F099838883A5
:1002B0001B830A8381E001C080E0DF91CF911F9111
:1002C0000F910895CF93DF93EC0188819981892B59
:1002D00029F08A819B818617970760F4CE010E94DE
:1002E0004801882341F08C819D81892B19F4E88194
:1002F000F981108281E0DF91CF910895EF92FF9212
:100300000F931F93CF93DF93EC017B018A01BA0116
:100310000E946201811104C0CE010E94360107C013
:100320001D830C83B701888199810E94BD06CE018F
:10033000DF91CF911F910F91FF90EF900895FC01F5
:100340001182108213821282158214821682611524
:10035000710551F0FB0101900020E9F73197AF01E1
:10036000461B570B0C947E010895CF93DF93EC014D
:100370006115710559F0FB0101900020E9F73197F3
:10038000AF01461B570B0E947E0102C00E9436013E
:10039000CE01DF91CF910895EF92FF920F931F93BB
:1003A000CF93DF936115710511F480E01CC04115F6
:1003B0005105C1F07B01EC018C819D818A01080F00
:1003C000191FB801CE010E946201882371F32881B0
:1003D00039818C819D81B701820F931F0E94BD06D8
:1003E0001D830C8381E0DF91CF911F910F91FF90CE
:1003F000EF900895CF93DF9300D0CDB7DEB7698338
:100400001A8241E050E0BE016F5F7F4F0E94CC0135
:100410000F900F90DF91CF910895FC0124813581D9
:100420006217730748F480819181009729F0FC01DD
:10043000E60FF71F8081089580E008950E9451061D
:100440000E946100CEEFD2E00E946F002097E1F39E
:100450000E94FE02F9CFFC0124853585F901E05C9C
:10046000FF4F80819181329620813181821B930BD5
:100470008F7399270895DC011C96ED91FC911D97CF
:10048000DF01A05CBF4F2D913C91119712968D9189
:100490009C9111972817390739F08D919C91E80F9D
:1004A000F91F808190E008958FEF9FEF0895FC0180
:1004B000A485B585FD01E05CFF4F20813181329636
:1004C000808191812817390779F080819181A80F67
:1004D000B91F8C91208131812F5F3F4F2F733327BC
:1004E0003183208390E008958FEF9FEF0895FC0102
:1004F00081A1882329F0A489B5898C9186FFFBCF3F
:1005000011A208950F931F93CF93DF93FC01A6854B
:10051000B7858D01005C1F4FE801888199810196A4
:100520008F739927AD014E5B5F4FEA0128813981B6
:1005300028173907D1F3E80128813981A20FB31FA9
:100540006C93A685B785A05CBF4F11969C938E9344
:10055000A689B7892C9181E090E0078C02C0880FB2
:10056000991F0A94E2F7822B8C9381E081A304887F
:10057000F589E02D80818064808381E090E0DF91C7
:10058000CF911F910F9108951F920F920FB60F9266
:1005900011242F934F935F938F939F93EF93FF9328
:1005A0008091C00082FD1CC02091C6008091C601D0
:1005B0009091C7014091C8015091C90101968F7374
:1005C00099274817590771F0E091C601F091C701CA
:1005D000EA57FE4F20839093C7018093C60102C063
:1005E0008091C600FF91EF919F918F915F914F9104
:1005F0002F910F900FBE0F901F90189580E291E001
:100600000E942B02892B11F00C948C0008951F92EC
:100610000F920FB60F9211242F933F938F939F93B6
:10062000EF93FF93209182013091830180918401A7
:10063000909185012817390731F48091C1008F7D91
:100640008093C10014C0E0918401F0918501EE5BBC
:10065000FE4F2081809184019091850101968F73D6
:10066000992790938501809384012093C600FF9180
:10067000EF919F918F913F912F910F900FBE0F900F
:100680001F901895CF92DF92EF92FF92CF93DF9356
:10069000EC016A017B014115514E6105710509F1BB
:1006A000EC89FD8981E090E008A002C0880F991FC5
:1006B0000A94E2F7808360E079E08DE390E0A7019F
:1006C00096010E948C06DA01C9010197A109B109BE
:1006D000B695A795979587959C01211580E13807D8
:1006E000A8F0EC89FD89108260E874E88EE190E062
:1006F000A70196010E948C06DA01C9010197A109A0
:10070000B109B695A795979587959C01E889F989D0
:100710003083EA89FB89208319A2EE89FF89408111
:1007200081E090E09C010C8C02C0220F331F0A94E0
:10073000E2F7242B2083EE89FF8940819C010D8CF8
:1007400002C0220F331F0A94E2F7242B2083EE8984
:10075000FF8940819C010E8C02C0220F331F0A9436
:10076000E2F7242B2083EE89FF8920810F8C02C0C1
:10077000880F991F0A94E2F7809582238083DF9186
:10078000CF91FF90EF90DF90CF900895E0E2F1E0FD
:100790001382128288EE93E0A0E0B0E08483958318
:1007A000A683B7838BE091E09183808386E891E014
:1007B0009587848782E491E09787868785EC90E02F
:1007C000918B808B84EC90E0938B828B80EC90E01B
:1007D000958B848B81EC90E0978B868B82EC90E0FC
:1007E000918F808F86EC90E0938F828F84E0848F4E
:1007F00083E0858F87E0868F85E0878F81E080A307
:1008000008956F927F928F929F92AF92BF92CF92F4
:10081000DF92EF92FF920F931F93CF93DF93009796
:1008200089F4CB01DF91CF911F910F91FF90EF9051
:10083000DF90CF90BF90AF909F908F907F906F9000
:100840000C94E604FC01E60FF71F9C0122503109CD
:10085000E217F30708F4A9C0EC01D9010D911C912E
:10086000119706171707B0F00530110508F49BC063
:10087000C80104978617970708F495C0025011091C
:10088000061B170B019311936D937C93CF010E946C
:100890007E0589C05B01A01AB10A4C01800E911E31
:1008A000A091D501B091D601612C712CE12CF12CD5
:1008B000109709F446C08D919C911197A815B90520
:1008C000B1F56C0142E0C40ED11CCA14DB0478F10E
:1008D0004C018A189B08640142E0C40ED11C129698
:1008E000BC9012971396AC91B5E0CB16D10440F0B2
:1008F000B282A38391828082D9016D937C9309C0D7
:100900000E5F1F4F800F911FF90191838083EB2DA4
:10091000FA2FE114F10431F0D7011396FC93EE9312
:10092000129741C0F093D601E093D5013CC0681600
:10093000790608F43C017D0112960D90BC91A02D22
:10094000B7CF8091D3019091D40188169906E1F434
:1009500066167706C8F48091000190910101009716
:1009600041F48DB79EB74091040150910501841B5D
:10097000950BE817F907C8F4F093D401E093D3017D
:10098000F901718360830FC0CB010E94E6047C01F2
:10099000009759F0A801BE010E94B406CE010E9442
:1009A0007E05C70104C0CE0102C080E090E0DF9167
:1009B000CF911F910F91FF90EF90DF90CF90BF905C
:1009C000AF909F908F907F906F9008950F931F939B
:1009D000CF93DF938230910510F482E090E0E091B4
:1009E000D501F091D60120E030E0A0E0B0E03097F2
:1009F00019F1408151810281138148175907C8F0CC
:100A00008417950769F4109731F012960C9312979A
:100A100013961C9327C00093D5011093D60122C0D2
:100A20002115310519F04217530718F49A01BD0139
:100A3000EF01DF01F801DBCF21153105F9F0281BAB
:100A4000390B2430310580F48A819B816115710551
:100A500021F0FB019383828304C09093D60180939D
:100A6000D501FE01329644C0FE01E20FF31F8193CF
:100A7000919322503109398328833AC02091D301C0
:100A80003091D401232B41F42091020130910301D4
:100A90003093D4012093D3012091000130910101C2
:100AA0002115310541F42DB73EB740910401509115
:100AB0000501241B350BE091D301F091D401E2171D
:100AC000F307A0F42E1B3F0B2817390778F0AC0171
:100AD0004E5F5F4F2417350748F04E0F5F1F50934E
:100AE000D4014093D3018193919302C0E0E0F0E000
:100AF000CF01DF91CF911F910F910895CF93DF9395
:100B0000009709F481C0FC01329713821282A091F0
:100B1000D501B091D601109781F420813181820FE7
:100B2000931F2091D3013091D4012817390751F533
:100B3000F093D401E093D30167C0ED0120E030E0F1
:100B4000CE17DF0740F44A815B819E0141155105B4
:100B5000F1F0EA01F5CFD383C28340815181840F44
:100B6000951FC817D90759F488819981840F951F5B
:100B70000296918380838A819B819383828321154E
:100B8000310529F4F093D601E093D5013DC0E90188
:100B9000FB83EA8349915991C40FD51FEC17FD07D8
:100BA00061F480819181840F951F0296E9019983F8
:100BB0008883828193819B838A83E0E0F0E01296B0
:100BC0008D919C911397009719F0FD01DC01F7CFEF
:100BD0008D919C9111979D012E5F3F4F820F931F26
:100BE0002091D3013091D4012817390769F4309747
:100BF00029F41092D6011092D50102C013821282FC
:100C0000B093D401A093D301DF91CF9108951F92A7
:100C10000F920FB60F9211242F933F938F939F93B0
:100C2000AF93BF938091CB019091CC01A091CD0166
:100C3000B091CE013091CA0123E0230F2D3720F46B
:100C40000196A11DB11D05C026E8230F0296A11D26
:100C5000B11D2093CA018093CB019093CC01A09346
:100C6000CD01B093CE018091CF019091D001A091A0
:100C7000D101B091D2010196A11DB11D8093CF0188
:100C80009093D001A093D101B093D201BF91AF91C5
:100C90009F918F913F912F910F900FBE0F901F90BA
:100CA0001895789484B5826084BD84B5816084BDD4
:100CB00085B5826085BD85B5816085BDEEE6F0E0D5
:100CC000808181608083E1E8F0E010828081826031
:100CD0008083808181608083E0E8F0E080818160B2
:100CE0008083E1EBF0E0808184608083E0EBF0E0E2
:100CF000808181608083EAE7F0E080818460808386
:100D0000808182608083808181608083808180682F
:100D100080831092C1000895A1E21A2EAA1BBB1B6A
:100D2000FD010DC0AA1FBB1FEE1FFF1FA217B307B7
:100D3000E407F50720F0A21BB30BE40BF50B661FCD
:100D4000771F881F991F1A9469F760957095809591
:100D500090959B01AC01BD01CF010895EE0FFF1FDF
:100D60000590F491E02D0994FB01DC0102C0019093
:100D70000D9241505040D8F70895FB01DC010190DD
:100D80000D920020E1F7089510E0C6E3D0E004C022
:100D9000FE010E94AE062196C733D107C9F7F89429
:020DA000FFCF83
:100DA2000000D701800000000000008202A7002B93
:080DB2000257023B0277020028
:00000001FF
