:100000000C945E000C9486000C9486000C94860080
:100010000C9486000C9486000C9486000C94860048
:100020000C9486000C9486000C9486000C94860038
:100030000C9486000C9486000C9486000C94860028
:100040000C94590F0C9486000C94A4120C94E71293
:100050000C9486000C9486000C9486000C94860008
:100060000C9486000C94860000000007000201003A
:100070000003040600000000000000000102040864
:100080001020408001020408102001020408102002
:10009000040404040404040402020202020203032E
:1000A0000303030300000000250028002B000000CC
:1000B0000000240027002A00050CA61311241FBEEF
:1000C000CFEFD8E0DEBFCDBF12E0A0E0B1E0EEEAB6
:1000D000FDE202C005900D92A83FB107D9F726E0D6
:1000E000A8EFB2E001C01D92A83BB207E1F710E013
:1000F000CEE5D0E004C02197FE010E94B716CC35B2
:10010000D107C9F70E94FD110C94D5160C9400007C
:10011000DC01FB0112968C911297808313968C91CF
:100120001397818314968C911497828315968C91E2
:100130001597838316968C911697848317968C91C6
:100140001797858318968C911897868319968C91AA
:10015000878388E090E00895FC01DB014C9150E03A
:1001600060E070E0428353836483758311968C91C1
:100170001197582B428353836483758312968C9115
:100180001297682B428353836483758313968C91F3
:100190001397782B428353836483758314964C9111
:1001A000149750E060E070E0468357836087718762
:1001B00015968C911597582B4683578360877187C6
:1001C00016968C911697682B4683578360877187A4
:1001D00017968C91782B468357836087718788E0C8
:1001E00090E0089586E091E0089584E191E008951B
:1001F00085E391E008958EE491E008958FE691E023
:10020000089582E891E008958FEB92E0089583EAE3
:1002100091E00895DC01FB0112963C911297139630
:100220002C91139714969C91149715968C91159771
:10023000308321839283838316963C911697179679
:100240002C91179718969C91189719968C9119973D
:1002500034832583968387831A963C911A971B963D
:100260002C911B971C969C911C971D968C911D9709
:1002700030872187928783871E963C911E971F9611
:100280002C911F9750969C91509751968C91348742
:1002900025879687878780E190E00895FC01DB0140
:1002A0004D915D916D917C9113974283538364834B
:1002B000758314964D915D916D917C91179746834E
:1002C00057836087718718964D915D916D917C91F0
:1002D0001B9742875387648775871C968D919D91E4
:1002E0000D90BC91A02D86879787A08BB18B80E164
:1002F00090E0089587EA92E0089584EC91E00895F3
:10030000FC018281FB01808381E090E00895FB0184
:100310002081FC01228381E090E0089587EA92E049
:10032000089585EE91E00895EF92FF920F931F9349
:10033000CF93DF93EC017C0186E0E80EF11CC7014E
:100340000E944E018E01085E1F4FEDA1FEA1B80173
:10035000C701099589A19AA16F8D78A1DC01ED9162
:10036000FC910190F081E02DA801DF91CF911F91C8
:100370000F91FF90EF90099483E090E0089587EA51
:1003800092E0089584EC91E008958A549D4FFC0119
:1003900080810895CF93DF93EC0181E0FB0182839C
:1003A0004A815B816C817D8122E030E08AE096E0C9
:1003B0000E94FB114E815F816885798522E030E0E3
:1003C0008AE096E00E94FB114A855B856C857D85FD
:1003D00022E030E08AE096E00E94FB114E855F85C6
:1003E0006889798922E030E08AE096E00E94FB117A
:1003F00061E08DE00E942A0F6AEF70E080E090E0FB
:100400000E94D40F60E08DE00E942A0F6AEF70E036
:1004100080E090E0DF91CF910C94D40FAF92BF9227
:10042000CF92DF92EF92FF920F931F93CF93DF93C0
:1004300000D000D01F92CDB7DEB7643671053CF016
:10044000FC01EA54FD4F2081222309F477C0DA0130
:100450007B018C01BC01695C7E4FED91FC910190A8
:10046000F081E02DCA010995680120EDC21A2EEF36
:10047000D20A2FEFD6012C93F801EF5CFE4F2EEF3E
:10048000208331968083319690833196292F280FCF
:10049000209520833196E0821696FC9245E050E04C
:1004A00020E030E0DC011696A417B50734F0619126
:1004B000260F311D4F5F5F4FF7CF7C01B8E0EB0E89
:1004C000F11C800F911FFC01E95CFE4F20952083F9
:1004D000E9E1EE16E1E0FE06BCF45601C5018C1917
:1004E0009D098E159F056CF5D80112968D919C91F2
:1004F0001397F50161915F01DC01ED91FC91019091
:10050000F081E02D0995EACF85E692E09A83898310
:1005100083E08B8386E092E09D838C83D801ED910C
:10052000FC910190F081E02DAE014F5F5F4F67E0DD
:1005300070E0C80109958FEF9FEF04C080E090E064
:1005400001C0C7010F900F900F900F900F90DF9197
:10055000CF911F910F91FF90EF90DF90CF90BF90C0
:10056000AF90089561E08DE00E94EE0E409123036C
:1005700050912403609125037091260380912103FB
:10058000909122030E9422131092CC051092CB0569
:100590001092CE051092CD051092D2051092D10581
:1005A0001092D0051092CF05E7E6F5E080E090E0EC
:1005B00021913191232BB1F4FC01EE0FFF1FE9597A
:1005C000FA4F23E133E03183208383589F4F909388
:1005D0001803809317038FE193E090931A0380939D
:1005E000190304C001968931910511F7E9E9F5E095
:1005F00080E090E021913191232B81F4FC01EE0FFA
:10060000FF1FE756FA4F28EF32E0318320838C59E1
:100610009F4F9093FB028093FA02089501968931CF
:10062000910541F70895CF92DF92EF92FF9220E07B
:1006300030E06A017B01022E04C0F694E794D7945F
:10064000C7940A94D2F7FC01C192CF01285F3F4FB3
:100650002032310571F7FF90EF90DF90CF90089531
:100660004F925F926F927F92AF92BF92CF92DF9242
:10067000EF92FF920F931F93CF93DF93EC018B01C7
:100680008A81FB0180838B8181838C8182838D8130
:100690008383DB0140E050E0BA01E4E0F0E014962F
:1006A000CA80DB80EC80FD80CF0104964C155D058F
:1006B0006E057F05C8F42A853B85E20FF31F34974A
:1006C000D080F18032812381DC921196FC921197C7
:1006D00012963C93129713962C931397FC014F5F3D
:1006E0005F4F6F4F7F4FDBCF5F01A00EB11E2C8598
:1006F000F50120832D8521832E8522832F85238359
:10070000D50140E050E0BA01CC84DD84EE84FF8462
:100710009C012C5F3F4F4C155D056E057F05F8F47D
:10072000CD018A199B09EC88FD888E0D9F1DFC0167
:10073000D080E180F28083811496DC921497159624
:10074000EC9215971696FC92169717968C9317971E
:10075000C9014F5F5F4F6F4F7F4F1496D5CFF801A0
:10076000E80FF91F8E8980838F898183888D82832A
:10077000898D83837901A12CB12C412C512C32011C
:100780008E899F89A88DB98D481659066A067B0601
:1007900080F5EC8DFD8DEA0DFB1DA081B181FD0181
:1007A00001900020E9F731976F01CA1ADB0AA60110
:1007B00060E070E0C8018E0D9F1D0E941303F4E0FD
:1007C000EF0EF11CEC8DFD8DEA0DFB1D608171813A
:1007D000A601C8018E0D9F1D0E94CC16EC0CFD1CBD
:1007E0008FEF481A580A680A780AE2E0AE0EB11C88
:1007F000C7CFC701DF91CF911F910F91FF90EF906D
:10080000DF90CF90BF90AF907F906F905F904F90B0
:100810000895EF92FF920F931F93CF93DF938C0174
:100820007B01DC0112962C911297FB012193CF01E1
:100830001396ED91FC911497EF0109900020E9F7D0
:100840002197CE1BDF0BAE0160E070E00E94130326
:10085000D80113966D917C911497AE01C70105964E
:100860000E94CC16CE010596DF91CF911F910F917A
:10087000FF90EF900895CF92DF92EF92FF920F9347
:100880001F93CF93DF937C018B01DC0112968C9137
:100890001297FB01808313968C9113978183149692
:1008A000ED91FC911597EF0109900020E9F7219750
:1008B000CE1BDF0BAE0160E070E0C80102960E9423
:1008C0001303D70114966D917C911597AE01C80161
:1008D00006960E94CC16CE010696F701A681B78136
:1008E000FD0101900020E9F731976F01CA1ADB0A78
:1008F000A60160E070E0800F911F0E9413032A960A
:10090000D70116966D917C911797A601C8018C0F9F
:100910009D1F0E94CC16CC0DDD1DD7011896ED91C0
:10092000FC911997DF010D900020E9F711976D01F7
:10093000CE1ADF0AA60160E070E0C8018C0F9D1F8F
:100940000E9413032496F70160857185A601C801F2
:100950008C0F9D1F0E94CC16C6018C0F9D1FD701C6
:100960001A966C911A971B964C911B971C963C916A
:100970001C971D962C91F801E80FF91F60834183A5
:10098000328323830496DF91CF911F910F91FF90C3
:10099000EF90DF90CF900895CF92DF92EF92FF9289
:1009A000FC011082118212821382DB0120E030E010
:1009B0004D9150E0022E02C0440F551F0A94E2F7F9
:1009C000052E000C660B770BC080D180E280F3808F
:1009D0004C295D296E297F2940835183628373836B
:1009E000285F3F4F2032310519F7FF90EF90DF90DD
:1009F000CF9008954F925F926F927F928F929F92C5
:100A0000AF92BF92EF92FF920F931F93CF93DF931A
:100A100000D000D0CDB7DEB77C018B01FB01819106
:100A2000BF01F7018283CE0101960E94CC04898127
:100A30009A81AB81BC814C015D01F5E08F0E911C68
:100A4000A11CB11CA8014C5F5F4FFA0125E030E00A
:100A50002901612C712C481459046A047B0428F480
:100A6000618161932F5F3F4FF3CFF801E80FF91FCA
:100A70001482F7015483438305960F900F900F90D3
:100A80000F90DF91CF911F910F91FF90EF90BF904A
:100A9000AF909F908F907F906F905F904F90089550
:100AA0004F925F926F927F928F929F92AF92BF927E
:100AB000CF92DF92EF92FF920F931F93CF93DF932A
:100AC000CDB7DEB72C970FB6F894DEBF0FBECDBF03
:100AD0007C018B01DB018C9190E0F7019383828391
:100AE00011962C91922B938382836E5F7F4FCE0160
:100AF00009960E94CC0489849A84AB84BC84240126
:100B00003501F6E04F0E511C611C711C98012B5FE2
:100B10003F4FF90186E090E0AC0160E070E04415E1
:100B200055056605770520F4418141930196F4CF80
:100B3000F801E80DF91D1582D70115963C932E9307
:100B40001497B4016A5F7F4F600F711FCE01059645
:100B50000E94CC04BAE08B0E911C4D805E806F80A9
:100B60007884A401092C000C660B770B440D551DED
:100B7000661D771DD801A80DB91DCD01801B910BF5
:100B80005C01C12CD12CA416B506C606D70628F4E4
:100B90008D91FD0132978083F0CF5401A40CB51CD8
:100BA000B8016A0D7B1DFB0131971082C4010197CA
:100BB000800F911FF70197838683CE0101960E94D3
:100BC000CC0495012C5F3F4F89819A81AB81BC8118
:100BD0002901032E000C66087708480E591E6A1E6C
:100BE0007B1EF5013396E00FF11FA9014A01A12CEC
:100BF000B12C84149504A604B70428F46181619390
:100C00004F5F5F4FF3CF820F931FF801E80FF91F7B
:100C1000DF0111971C9221503109020F131FD701D8
:100C200019961C930E9318972181428150E060E041
:100C300070E0BA0155274427522B2081422B238193
:100C4000722BF701428753876487758704962C9629
:100C50000FB6F894DEBF0FBECDBFDF91CF911F91CD
:100C60000F91FF90EF90DF90CF90BF90AF909F904B
:100C70008F907F906F905F904F9008952F923F924A
:100C80004F925F926F927F928F929F92AF92BF929C
:100C9000CF92DF92EF92FF920F931F93CF93DF9348
:100CA000CDB7DEB760970FB6F894DEBF0FBECDBFED
:100CB0008C016B01DB018D909D90AD90BC90FC018F
:100CC00082819381A481B58188159905AA05BB0508
:100CD00070F4B401660F771F660F771F82859385C6
:100CE0000E94BF0CD8011B969C938E931A97F80113
:100CF00082829382A482B5829601812C912C540128
:100D000044E050E0B8016A5F7F4F2C5F3F4FF8012D
:100D100082819381A481B581FA0134961F018816DE
:100D20009906AA06BB0650F5D9011196FC901197B9
:100D300012968C9190E0A0E0B0E0DC019927882722
:100D40009F29F901F0808F29F380BF29F80186835C
:100D50009783A087B187DA01A101149782859385D3
:100D6000A80FB91F84E0FB0101900D928A95E1F76D
:100D7000FFEF8F1A9F0AAF0ABF0AC7CF4601840E42
:100D8000951ED4018C9111969C91119712964C90BE
:100D90001297512C612C712C320155244424592A6C
:100DA000482A13968C91782A5F01F80184859585ED
:100DB000A685B78584159505A605B70570F4B2011B
:100DC000660F771F660F771F848995890E94BF0C75
:100DD000D80155969C938E935497F8014486558676
:100DE00066867786C401412C512C32019801205F20
:100DF0003F4FD8011C964D915D916D917C911F974D
:100E0000F5013496441655066606770698F5DC011A
:100E10001596FC90159716964C91169750E060E049
:100E200070E0BA01552744275F291496FC90149767
:100E30004F291796FC907F29D80150964D935D93CA
:100E40006D937C9353975F01AC01481959095496EF
:100E50000D90BC91A02DA40FB51F44E0F9010190A5
:100E60000D924A95E1F7BFEF4B1A5B0A6B0A7B0ABA
:100E70000496BFCFD601AA0DBB1D8C9111969C91F3
:100E8000119712968C901297912CA12CB12C540191
:100E900099248824992A882A13968C91B82A7F014C
:100EA000F80186899789A08DB18D88159905AA05C5
:100EB000BB0560F4B401660F771F848D958D0E9489
:100EC000BF0CD8015D969C938E935C97F801868A3F
:100ED000978AA08EB18E212C312C812C912C54011B
:100EE0009801265E3F4F3A872987F80186899789BE
:100EF000A08DB18D88169906AA06BB0608F05FC0C2
:100F0000B6016E0D7F1DCE0101960E94CC049701A3
:100F10002C5F3F4F388B2F8749815A816B817C81B1
:100F2000C901330FAA0BBB0B2C013D01440E551E0A
:100F3000661E771E4B865C866D867E8623E0E20EFB
:100F4000F11CF601EE0DFF1D2F853889C901A0E0C7
:100F5000B0E04B845C846D847E8484159505A60581
:100F6000B70528F4A181A1932F5F3F4FEFCF6F8486
:100F70007888460D571DF601E40FF51F3197108252
:100F8000C30101978C0D9D1DD8015B969C938E9398
:100F90005A977A015C96ED91FC915D97E20DF31DF5
:100FA000A985BA858D919C9191838083BFEF8B1A1F
:100FB0009B0AAB0ABB0AE2E02E0E311C96CFC7019A
:100FC00060960FB6F894DEBF0FBECDBFDF91CF9114
:100FD0001F910F91FF90EF90DF90CF90BF90AF9057
:100FE0009F908F907F906F905F904F903F902F9049
:100FF00008950F931F93CF93DF93CDB7DEB72A9752
:101000000FB6F894DEBF0FBECDBF8C018DE492E029
:101010009A8389831B821C821D821E821F821886EE
:1010200019861A86D801ED91FC910190F081E02D8E
:10103000AE014F5F5F4F6AE070E0C80109950E9402
:10104000A30FF80160877187828793872A960FB66E
:10105000F894DEBF0FBECDBFDF91CF911F910F91EE
:1010600008954F925F926F927F92AF92BF92CF920C
:10107000DF92EF92FF920F931F93CF93DF93CDB741
:10108000DEB72E970FB6F894DEBF0FBECDBF8C0132
:1010900089E592E09A8389831C821B828EE392E029
:1010A0009E838D8398878F839A8789871B861C866A
:1010B0001D861E86680188EBC81A8DEFD80A780154
:1010C000A6E8EA1AADEFFA0A98E1492E552453949E
:1010D000612C712CD601ED91FC913097A9F184819E
:1010E00095819C838B83808191819E838D83828176
:1010F0009381DC01ED91FC910480F581E02D09954F
:1011000098878F83D601ED91FC9182819381DC01D8
:10111000ED91FC910680F781E02D09959A878987EA
:101120004B865C866D867E86D601ED91FC9160854E
:101130007185D801ED91FC910190F081E02DAE0117
:101140004F5F5F4FC8010995B2E0CB0ED11CCE14A2
:10115000DF0409F0BFCF6801E4E5CE1AEDEFDE0A47
:1011600088E1482E55245394612C712CF701A081FD
:10117000B1811097E1F112968D919C9113979C8308
:101180008B8314968D919C9115979E838D83ED9101
:10119000FC9111970480F581E02DCD010995988788
:1011A0008F83D7018D919C91DC01ED91FC9106809C
:1011B000F781E02D09959A8789874B865C866D8635
:1011C0007E86D801ED91FC91A080B180F7018081ED
:1011D0009181DC01ED91FC910280F381E02D099574
:1011E000AE014F5F5F4FBC01C801F5010995F2E008
:1011F000EF0EF11CCE14DF0409F0B8CFF801EA5469
:10120000FD4F81E080832E960FB6F894DEBF0FBEAF
:10121000CDBFDF91CF911F910F91FF90EF90DF90A5
:10122000CF90BF90AF907F906F905F904F90089558
:101230008F929F92AF92BF92CF92DF92EF92FF92E6
:101240000F931F93CF93DF93CDB7DEB72A970FB6D7
:10125000F894DEBF0FBECDBF8C015B018DE492E040
:101260009A8389831B821C821D821E821F8218869C
:1012700019861A860E94A30FF801C084D184E284E3
:10128000F3849B01AC012C193D094E095F096901EA
:101290007A01B501CE0101960E94AC0088EE882E3D
:1012A00083E0982EA12CB12CC701B601A5019401B1
:1012B0000E947616CB80DC80ED80FE80C20ED31EAD
:1012C000E41EF51ECB82DC82ED82FE829B01AC0126
:1012D00060E472E48FE090E00E945216CF80D884E0
:1012E000E984FA84DC01CB018C0D9D1DAE1DBF1D70
:1012F0008F839887A987BA870E94A30FCB80DC8051
:10130000ED80FE8031E0C31AD108E108F108A501A3
:1013100094010E947616C21AD30AE40AF50AF8016B
:10132000C486D586E686F786CF80D884E984FA8499
:10133000F6E3DF1AF5E6EF0AF4ECFF0A9B01AC01D5
:1013400060E472E48FE090E00E945216C61AD70A59
:10135000E80AF90AF801C08AD18AE28AF38AB80158
:10136000605F7F4FC8010C960E94E1130E94A30F9B
:10137000F801E554FD4F60837183828393832A963D
:101380000FB6F894DEBF0FBECDBFDF91CF911F9196
:101390000F91FF90EF90DF90CF90BF90AF909F9014
:1013A0008F9008952F923F924F925F926F927F920B
:1013B0008F929F92AF92BF92CF92DF92EF92FF9265
:1013C0000F931F93CF93DF93CDB7DEB760970FB620
:1013D000F894DEBF0FBECDBF988B8F870E94A30FFE
:1013E0004B015C012F85388925543D4F3E832D8369
:1013F000F90180819181A281B381A5019401281B0B
:10140000390B4A0B5B0BDA01C901893F9A42A105EE
:10141000B10528F0EF85F889EA54FD4F10820F8559
:10142000188904551D4FD8018D919C91892B81F00D
:10143000EF85F889E154FD4F80819181A281B381CC
:1014400088159905AA05BB0518F4F80111821082C8
:101450006F847888FCE46F1AFDEF7F0A2F85388946
:1014600020553D4F3A832983CF84D88838E1C30E75
:10147000D11C4F8558894A545D4F58874F838F85BB
:1014800098898C539D4F9A878987AF85B889AD53CA
:10149000BD4FBC87AB87EF84F888B2E5EB1ABDEF90
:1014A000FB0AEF85F889EE54FD4FFC83EB832F8513
:1014B000388921543D4F3E872D871401250134E1A1
:1014C000230E311C411C511CEF85F88984899589B4
:1014D000A689B789892B8A2B8B2B89F4AF85B8898C
:1014E00012968D919C911397DC01ED91FC910680F1
:1014F000F781E02D09959C0197FF15C03CC10E9422
:10150000A30FDC01CB0188199909AA09BB09EF8552
:10151000F8892489358946895789281739074A0760
:101520005B07E0F650C1D3018D919C911197820F1A
:10153000931F8D939C93F801408151814730510551
:10154000D9F4AB81BC818D919C911197AC014F5F17
:101550005F4F4D935C93EF85F889E80FF91F208F5B
:10156000F70180819181019791838083892B09F014
:10157000ABCF88E090E06FC04115510529F52F3FB2
:10158000310569F481E090E0F80191838083AD85B5
:10159000BE852D923D924D925C92139795CF0E94FD
:1015A000A30FDC01CB0188199909AA09BB09893865
:1015B0009341A105B10508F487CF2F8538892A54B6
:1015C0003D4FD9011C92FFC04130510591F42E3F8F
:1015D000310519F482E090E02EC011821082EF8173
:1015E000F8858081811170CF8F8598890E94F907D5
:1015F0006BCF4230510581F4D7012D933C93EB81A1
:10160000FC811182108283E090E0D8018D939C933D
:10161000F3013183208358CF4330510581F4322FB9
:101620002227D7018D919C911197280F391F2D9357
:101630003C9384E090E0F8019183808345CF44306F
:10164000510589F460E071E00E9462168F3F9105B8
:1016500031F485E090E0D8018D939C9335CFF8016B
:101660001182108231CF4530510569F4A981BA81C8
:101670002D933C9346E050E0F80151834083D30121
:101680002D933C9321CF4630510599F4322F2227D8
:10169000E981FA8180819181280F391F318320836C
:1016A000E7E0F0E0D801ED93FC93D7018D919C9198
:1016B0005DCF4830510509F007CFF8011182108243
:1016C00060E071E00E9462168F3F910509F0FCCE48
:1016D000A981BA818D919C910097C9F48F859889D1
:1016E0000E94F9078F8598890E943108EF85F88953
:1016F000E954FD4F80829182A282B382ED81FE8106
:1017000080829182A282B3828FEF9FEF61C08A3084
:10171000910531F4B6018F8598890E941809D4CEBD
:101720008630910551F4B60189859A850E943E065E
:1017300081E0AB85BC858C93C7CE8B30910521F4BD
:10174000EF81F8851082C0CEFC01E752FF4FEE0F0B
:10175000FF1F2F853889E20FF31F80819181009749
:1017600009F4B2CEDC01ED91FC910190F081E02D05
:10177000B6010995A9CEEF85F889EA54FD4F80811D
:10178000882321F10F85188909541D4FF8018081A4
:101790009181A281B381A5019401281B390B4A0BC9
:1017A0005B0BDA01C901853C9940A105B10570F0D8
:1017B0008F8598890E94F907D8018D929D92AD92EC
:1017C000BC92139703C08EEF9FEF02C080E090E0C1
:1017D00060960FB6F894DEBF0FBECDBFDF91CF91FC
:1017E0001F910F91FF90EF90DF90CF90BF90AF903F
:1017F0009F908F907F906F905F904F903F902F9031
:1018000008958FE193E00C94D20985E992E09093DA
:10181000200380931F038AE096E090932203809335
:10182000210380E091EEA0E0B0E080932303909349
:101830002403A0932503B09326031092D50581E7D6
:1018400092E09093E4058093E3051092E5051092F1
:10185000E6051092E7051092E8051092EE05109249
:10186000ED051092EF051092F0051092F10510921F
:10187000F2051092F8051092F7051092F9051092F2
:10188000FA051092FB051092FC05109200061092CA
:10189000FF05E9E9F5E0A7E6B5E01D921D92EA171C
:1018A000FB07D9F78BEC95E0119211928E179F07E9
:1018B000D9F7A7E3B3E0EFE4F4E01D92EA17FB07E2
:1018C000E1F7119285E0E736F807D9F71092330374
:1018D0001092340310923503109236038FE992E090
:1018E0009093F9028093F8028DE792E09093FF02C3
:1018F0008093FE02109200031092010310920203E3
:101900001092030310920403109205031092060331
:1019100010920703109208031092090310920A0311
:1019200010920B0310920C0310920D0310920E03F1
:1019300010920F0389E892E09093110380931003B3
:10194000109212038FE392E0909314038093130399
:1019500020E133E0309316032093150322E030E0BA
:1019600030931C0320931B039093FD028093FC0291
:101970008AEC91E090931E0380931D0308956F926B
:101980007F928F929F92AF92BF92CF92DF92EF920F
:10199000FF920F931F93CF93DF93009789F4CB01AE
:1019A000DF91CF911F910F91FF90EF90DF90CF903B
:1019B000BF90AF909F908F907F906F900C94A40DEC
:1019C000FC01E60FF71F9C0122503109E217F307D3
:1019D00008F4A9C0EC01D9010D911C9111970617CB
:1019E0001707B0F00530110508F49BC0C801049733
:1019F0008617970708F495C002501109061B170BAC
:101A0000019311936D937C93CF010E943C0E89C08A
:101A10005B01A01AB10A4C01800E911EA091B6067E
:101A2000B091B706612C712CE12CF12C109709F4C0
:101A300046C08D919C911197A815B905B1F56C011F
:101A400042E0C40ED11CCA14DB0478F14C018A18A0
:101A50009B08640142E0C40ED11C1296BC90129700
:101A60001396AC91B5E0CB16D10440F0B282A383BB
:101A700091828082D9016D937C9309C00E5F1F4FC4
:101A8000800F911FF90191838083EB2DFA2FE114D0
:101A9000F10431F0D7011396FC93EE93129741C0F5
:101AA000F093B706E093B6063CC06816790608F4D2
:101AB0003C017D0112960D90BC91A02DB7CF809175
:101AC000B4069091B50688169906E1F46616770675
:101AD000C8F48091000190910101009741F48DB705
:101AE0009EB74091040150910501841B950BE817A6
:101AF000F907C8F4F093B506E093B406F9017183D1
:101B000060830FC0CB010E94A40D7C01009759F0A7
:101B1000A801BE010E94CC16CE010E943C0EC70156
:101B200004C0CE0102C080E090E0DF91CF911F9110
:101B30000F91FF90EF90DF90CF90BF90AF909F906C
:101B40008F907F906F9008950F931F93CF93DF93A3
:101B50008230910510F482E090E0E091B606F091B9
:101B6000B70620E030E0A0E0B0E0309719F1408106
:101B700051810281138148175907C8F084179507CE
:101B800069F4109731F012960C93129713961C93E8
:101B900027C00093B6061093B70622C02115310561
:101BA00019F04217530718F49A01BD01EF01DF0144
:101BB000F801DBCF21153105F9F0281B390B243052
:101BC000310580F48A819B816115710521F0FB014B
:101BD0009383828304C09093B7068093B606FE0178
:101BE000329644C0FE01E20FF31F8193919322507D
:101BF0003109398328833AC02091B4063091B50663
:101C0000232B41F420910201309103013093B5065A
:101C10002093B40620910001309101012115310576
:101C200041F42DB73EB74091040150910501241BAA
:101C3000350BE091B406F091B506E217F307A0F476
:101C40002E1B3F0B2817390778F0AC014E5F5F4F12
:101C50002417350748F04E0F5F1F5093B506409389
:101C6000B4068193919302C0E0E0F0E0CF01DF91F0
:101C7000CF911F910F910895CF93DF93009709F4AF
:101C800081C0FC01329713821282A091B606B091F6
:101C9000B706109781F420813181820F931F209124
:101CA000B4063091B5062817390751F5F093B506FB
:101CB000E093B40667C0ED0120E030E0CE17DF0707
:101CC00040F44A815B819E0141155105F1F0EA0122
:101CD000F5CFD383C28340815181840F951FC817EC
:101CE000D90759F488819981840F951F02969183B1
:101CF00080838A819B81938382832115310529F416
:101D0000F093B706E093B6063DC0E901FB83EA8392
:101D100049915991C40FD51FEC17FD0761F48081DB
:101D20009181840F951F0296E901998388838281AE
:101D300093819B838A83E0E0F0E012968D919C91E1
:101D40001397009719F0FD01DC01F7CF8D919C915D
:101D500011979D012E5F3F4F820F931F2091B40674
:101D60003091B5062817390769F4309729F4109295
:101D7000B7061092B60602C013821282B093B5065F
:101D8000A093B406DF91CF910895833081F028F4B9
:101D9000813099F08230A1F008958630A9F0873023
:101DA000B9F08430D1F4809180008F7D03C08091A0
:101DB00080008F7780938000089584B58F7702C06C
:101DC00084B58F7D84BD08958091B0008F7703C066
:101DD0008091B0008F7D8093B0000895CF93DF9302
:101DE00090E0FC01E458FF4F2491FC01E057FF4FC5
:101DF0008491882361F190E0880F991FFC01E255DE
:101E0000FF4FC591D491FC01EC55FF4FA591B491C2
:101E1000611109C09FB7F894888120958223888337
:101E2000EC912E230BC0623061F49FB7F894888147
:101E3000322F309583238883EC912E2B2C939FBFD8
:101E400006C08FB7F894E8812E2B28838FBFDF91CF
:101E5000CF9108951F93CF93DF93282F30E0F9019E
:101E6000E859FF4F8491F901E458FF4FD491F901EB
:101E7000E057FF4FC491CC23C1F0162F81110E946F
:101E8000C50EEC2FF0E0EE0FFF1FEC55FF4FA591B4
:101E9000B4919FB7F894111104C08C91D095D823B8
:101EA00002C0EC91DE2BDC939FBFDF91CF911F919D
:101EB00008951F920F920FB60F9211242F933F9304
:101EC0008F939F93AF93BF938091020690910306E7
:101ED000A0910406B09105063091010623E0230F7E
:101EE0002D3720F40196A11DB11D05C026E8230F52
:101EF0000296A11DB11D20930106809302069093C6
:101F00000306A0930406B0930506809106069091FF
:101F10000706A0910806B09109060196A11DB11D02
:101F20008093060690930706A0930806B0930906CF
:101F3000BF91AF919F918F913F912F910F900FBEC5
:101F40000F901F9018952FB7F8946091020670912A
:101F5000030680910406909105062FBF08953FB7B0
:101F6000F8948091060690910706A0910806B0911A
:101F7000090626B5A89B05C02F3F19F00196A11DA3
:101F8000B11D3FBFBA2FA92F982F8827820F911D0F
:101F9000A11DB11DBC01CD0142E0660F771F881F56
:101FA000991F4A95D1F70895CF92DF92EF92FF9251
:101FB000CF93DF936B017C010E94AF0FEB01C11443
:101FC000D104E104F10479F00E94AF0F6C1B7D0B8A
:101FD000683E7340A0F381E0C81AD108E108F10817
:101FE000C851DC4FECCFDF91CF91FF90EF90DF90A5
:101FF000CF900895789484B5826084BD84B5816063
:1020000084BD85B5826085BD85B5816085BDEEE600
:10201000F0E0808181608083E1E8F0E010828081DF
:1020200082608083808181608083E0E8F0E080814D
:1020300081608083E1EBF0E0808184608083E0EB6D
:10204000F0E0808181608083EAE7F0E08081846055
:1020500080838081826080838081816080838081B1
:10206000806880831092C1000895CF92DF92EF9232
:10207000FF920F931F93CF93DF936C01EB017B01D2
:10208000E40EF51E00E010E0CE15DF0561F0699169
:10209000D601ED91FC910190F081E02DC6010995EA
:1020A000080F191FF1CFC801DF91CF911F910F9138
:1020B000FF90EF90DF90CF9008956115710579F052
:1020C000FB0101900020E9F73197AF01461B570B48
:1020D000DC01ED91FC910280F381E02D099480E018
:1020E00090E00895DC01ED91FC910190F081E02DEC
:1020F00009948F929F92AF92BF92CF92DF92EF920C
:10210000FF920F931F93CF93DF93CDB7DEB7A197C5
:102110000FB6F894DEBF0FBECDBF6C01142FE52FB4
:10212000CB01022F19A2223008F40AE07E0121E23D
:10213000E20EF11C802E912CA12CB12C612F7E2F50
:10214000A50194010E947616029F1019112481E0C6
:10215000E81AF1081A3014F4105D01C0195CF70197
:102160001083122FE32FCA01232B242B252B31F7A9
:10217000B701C6010E945D10A1960FB6F894DEBFAC
:102180000FBECDBFDF91CF911F910F91FF90EF90C8
:10219000DF90CF90BF90AF909F908F900895CF9297
:1021A000DF92EF92FF920F931F93CF93DF9321154E
:1021B000310581F4DC01ED91FC910190F081E02D7D
:1021C000642FDF91CF911F910F91FF90EF90DF90DF
:1021D000CF9009942A30310501F577FF1DC06A01BF
:1021E0007B01EC016DE20E9472108C01442755279F
:1021F000BA014C195D096E097F092AE0CE010E94DF
:102200007910800F911FDF91CF911F910F91FF9057
:10221000EF90DF90CF9008952AE0DF91CF911F914A
:102220000F91FF90EF90DF90CF900C9479109A016E
:10223000AB01770F660B770B0C94CF107F928F92C8
:102240009F92AF92BF92CF92DF92EF92FF920F9345
:102250001F93CF93DF938C016A017B01722E9A0149
:10226000AB01C701B6010E944D16882319F06BED32
:1022700072E027C046015701E894B7F82FEF3FEF0F
:102280004FE75FE7C501B4010E944D1681110DC0F3
:102290002FEF3FEF4FE75FE7C501B4010E947C14C9
:1022A00018161CF46FED72E00CC02FEF3FEF4FE7F4
:1022B0005FE4C701B6010E94DB15181694F463EEC3
:1022C00072E0C801DF91CF911F910F91FF90EF90C5
:1022D000DF90CF90BF90AF909F908F907F900C94A5
:1022E0005D102FEF3FEF4FE75FECC701B6010E9493
:1022F0007C1487FDE4CF20E030E0A901C701B601DE
:102300000E947C1487FF0AC06DE2C8010E9472100F
:10231000EC01F7FAF094F7F8F09402C0C0E0D0E0D6
:10232000B12C60E070E080E09FE37B1441F020E09E
:1023300030E040E251E40E948114B394F6CFA7014B
:1023400096010E9410146B017C010E94FA144B014B
:102350005C012AE0AB01BC01C8010E947910C80FE2
:10236000D91F7720C9F1C501B4010E9429159B012D
:10237000AC01C701B6010E940F146B017C016DE333
:1023800072E0C8010E945D10C80FD91F20E030E044
:1023900040E251E4C701B6010E94E0154B015C0127
:1023A0000E94F3146B017C014AE050E0C8010E94D6
:1023B0001711C80FD91FB601DD0C880B990B0E94AD
:1023C0002B159B01AC01C501B4010E940F146B01D8
:1023D0007C017A947110DACFCE01DF91CF911F91F9
:1023E0000F91FF90EF90DF90CF90BF90AF909F90B4
:1023F0008F907F9008950C941E110E94FA0F0E94F6
:10240000B202CEEDD2E10E94010C2097E1F30E94CE
:10241000DE12F9CFFC0124853585F901E05CFF4F20
:1024200080819181329620813181821B930B8F7341
:1024300099270895DC011C96ED91FC911D97DF0111
:10244000A05CBF4F2D913C91119712968D919C915C
:1024500011972817390739F08D919C91E80FF91FD2
:10246000808190E008958FEF9FEF0895FC01A4858F
:10247000B585FD01E05CFF4F20813181329680817E
:1024800091812817390779F080819181A80FB91FB0
:102490008C91208131812F5F3F4F2F733327318300
:1024A000208390E008958FEF9FEF0895FC0181A1B4
:1024B000882329F0A489B5898C9186FFFBCF11A2CE
:1024C00008950F931F93CF93DF93FC01A685B785E3
:1024D0008D01005C1F4FE8018881998101968F73FF
:1024E0009927AD014E5B5F4FEA012881398128179A
:1024F0003907D1F3E80128813981A20FB31F6C930A
:10250000A685B785A05CBF4F11969C938E93A68934
:10251000B7892C9181E090E0078C02C0880F991F49
:102520000A94E2F7822B8C9381E081A30488F589D9
:10253000E02D80818064808381E090E0DF91CF9105
:102540001F910F91089508951F920F920FB60F9249
:1025500011242F934F935F938F939F93EF93FF9348
:102560008091C00082FD1CC02091C6008091B00601
:102570009091B1064091B2065091B30601968F73C7
:1025800099274817590771F0E091B006F091B1060C
:10259000E059F94F20839093B1068093B00602C0B2
:1025A0008091C600FF91EF919F918F915F914F9124
:1025B0002F910F900FBE0F901F9018958AE096E014
:1025C0000E940A12892B11F00C94A31208951F92F5
:1025D0000F920FB60F9211242F933F938F939F93D7
:1025E000EF93FF9320916C0630916D0680916E06FB
:1025F00090916F062817390731F48091C1008F7DC3
:102600008093C10014C0E0916E06F0916F06E45D06
:10261000F94F208180916E0690916F0601968F731D
:10262000992790936F0680936E062093C600FF91C2
:10263000EF919F918F913F912F910F900FBE0F902F
:102640001F901895CF92DF92EF92FF92CF93DF9376
:10265000EC016A017B014115514E6105710509F1DB
:10266000EC89FD8981E090E008A002C0880F991FE5
:102670000A94E2F7808360E079E08DE390E0A701BF
:1026800096010E947616DA01C9010197A109B109E4
:10269000B695A795979587959C01211580E13807F8
:1026A000A8F0EC89FD89108260E874E88EE190E082
:1026B000A70196010E947616DA01C9010197A109C6
:1026C000B109B695A795979587959C01E889F989F1
:1026D0003083EA89FB89208319A2EE89FF89408132
:1026E00081E090E09C010C8C02C0220F331F0A9401
:1026F000E2F7242B2083EE89FF8940819C010D8C19
:1027000002C0220F331F0A94E2F7242B2083EE89A4
:10271000FF8940819C010E8C02C0220F331F0A9456
:10272000E2F7242B2083EE89FF8920810F8C02C0E1
:10273000880F991F0A94E2F7809582238083DF91A6
:10274000CF91FF90EF90DF90CF900895EAE0F6E010
:102750001382128288EE93E0A0E0B0E08483958338
:10276000A683B7838BEE92E09183808380E796E027
:10277000958784878CE296E09787868785EC90E042
:10278000918B808B84EC90E0938B828B80EC90E03B
:10279000958B848B81EC90E0978B868B82EC90E01C
:1027A000918F808F86EC90E0938F828F84E0848F6E
:1027B00083E0858F87E0868F85E0878F81E080A327
:1027C0000895CF92DF92EF92FF920F931F93CF93D2
:1027D000DF938C01EB01688179818A819B8120E004
:1027E0003AEC4AE95BE30E947616F801C080D1809A
:1027F000E280F380C20ED31EE41EF51EC082D18299
:10280000E282F382688379838A839B83DF91CF910D
:102810001F910F91FF90EF90DF90CF900895505847
:10282000BB27AA270E9427140C94A1150E94931578
:1028300038F00E949A1520F039F49F3F19F426F4DD
:102840000C9490150EF4E095E7FB0C948A15E92F93
:102850000E94B21558F3BA176207730784079507E9
:1028600020F079F4A6F50C94D4150EF4E0950B2E17
:10287000BA2FA02D0B01B90190010C01CA01A001D2
:102880001124FF27591B99F0593F50F4503E68F12D
:102890001A16F040A22F232F342F4427585FF3CF6E
:1028A000469537952795A795F0405395C9F77EF43F
:1028B0001F16BA0B620B730B840BBAF09150A1F088
:1028C000FF0FBB1F661F771F881FC2F70EC0BA0F0E
:1028D000621F731F841F48F4879577956795B79596
:1028E000F7959E3F08F0B0CF9395880F08F0992791
:1028F000EE0F9795879508950E94661508F481E07C
:1029000008950E9495140C94A1150E949A1558F0F0
:102910000E94931540F029F45F3F29F00C948A152A
:1029200051110C94D5150C9490150E94B21568F3B2
:102930009923B1F3552391F3951B550BBB27AA2778
:1029400062177307840738F09F5F5F4F220F331FB2
:10295000441FAA1FA9F335D00E2E3AF0E0E832D07A
:1029600091505040E695001CCAF72BD0FE2F29D07D
:10297000660F771F881FBB1F261737074807AB074F
:10298000B0E809F0BB0B802DBF01FF2793585F4FC4
:102990003AF09E3F510578F00C948A150C94D515A9
:1029A0005F3FE4F3983ED4F3869577956795B795A6
:1029B000F7959F5FC9F7880F911D9695879597F9B1
:1029C0000895E1E0660F771F881FBB1F621773072A
:1029D0008407BA0720F0621B730B840BBA0BEE1F3F
:1029E00088F7E09508950E94FA146894B1110C9448
:1029F000D51508950E94BA1588F09F5798F0B92F01
:102A00009927B751B0F0E1F0660F771F881F991F23
:102A10001AF0BA95C9F714C0B13091F00E94D415DC
:102A2000B1E008950C94D415672F782F8827B85FEC
:102A300039F0B93FCCF3869577956795B395D9F77B
:102A40003EF490958095709561957F4F8F4F9F4F85
:102A50000895E89409C097FB3EF490958095709591
:102A600061957F4F8F4F9F4F9923A9F0F92F96E9DA
:102A7000BB279395F695879577956795B795F1114F
:102A8000F8CFFAF4BB0F11F460FF1BC06F5F7F4FEC
:102A90008F4F9F4F16C0882311F096E911C07723FE
:102AA00021F09EE8872F762F05C0662371F096E807
:102AB000862F70E060E02AF09A95660F771F881FD6
:102AC000DAF7880F9695879597F90895990F00087A
:102AD000550FAA0BE0E8FEEF16161706E807F907F0
:102AE000C0F012161306E407F50798F0621B730B8B
:102AF000840B950B39F40A2661F0232B242B252B0C
:102B000021F408950A2609F4A140A6958FEF811DAE
:102B1000811D089597F99F6780E870E060E008954F
:102B20009FEF80EC089500240A94161617061806E5
:102B30000906089500240A941216130614060506C1
:102B40000895092E0394000C11F4882352F0BB0F52
:102B500040F4BF2B11F460FF04C06F5F7F4F8F4FB5
:102B60009F4F089557FD9058440F551F59F05F3FF0
:102B700071F04795880F97FB991F61F09F3F79F09F
:102B800087950895121613061406551FF2CF469521
:102B9000F1DF08C0161617061806991FF1CF8695A3
:102BA0007105610508940895E894BB276627772787
:102BB000CB0197F908950E94661508F48FEF0895E8
:102BC0000E94F3150C94A1150E94931538F00E94F1
:102BD0009A1520F0952311F00C948A150C949015F9
:102BE00011240C94D5150E94B21570F3959FC1F372
:102BF000950F50E0551F629FF001729FBB27F00DAB
:102C0000B11D639FAA27F00DB11DAA1F649F6627FF
:102C1000B00DA11D661F829F2227B00DA11D621F4E
:102C2000739FB00DA11D621F839FA00D611D221F08
:102C3000749F3327A00D611D231F849F600D211DEC
:102C4000822F762F6A2F11249F5750409AF0F1F06F
:102C500088234AF0EE0FFF1FBB1F661F771F881FD8
:102C600091505040A9F79E3F510580F00C948A1571
:102C70000C94D5155F3FE4F3983ED4F38695779591
:102C80006795B795F795E7959F5FC1F7FE2B880F7E
:102C9000911D9695879597F908950E946615880B62
:102CA000990B0895DB018F939F930E949816BF9113
:102CB000AF91A29F800D911DA39F900DB29F900D8B
:102CC0001124089597FB072E16F4009407D077FD82
:102CD00009D00E94A31607FC05D03EF4909581957B
:102CE0009F4F0895709561957F4F0895A1E21A2E28
:102CF000AA1BBB1BFD010DC0AA1FBB1FEE1FFF1FA0
:102D0000A217B307E407F50720F0A21BB30BE40BEF
:102D1000F50B661F771F881F991F1A9469F7609536
:102D20007095809590959B01AC01BD01CF010895F0
:102D30000E94BD16A59F900DB49F900DA49F800D7D
:102D4000911D11240895AA1BBB1B51E107C0AA1FA6
:102D5000BB1FA617B70710F0A61BB70B881F991F3C
:102D60005A95A9F780959095BC01CD010895EE0F75
:102D7000FF1F0590F491E02D0994A29FB001B39F2D
:102D8000C001A39F700D811D1124911DB29F700D74
:102D9000811D1124911D0895FB01DC0102C00190E9
:0E2DA0000D9241505040D8F70895F894FFCF9F
:102DAE000000B80680007374645F6D7367732F54F0
:102DBE00696D650063643731363663373463353594
:102DCE003263333131666263633266653561376211
:102DDE006332383900726F7373657269616C5F6D3F
:102DEE007367732F546F706963496E666F0030613D
:102DFE006435316638386663343438393266386350
:102E0E00313036383430373736343630303500726C
:102E1E006F7373657269616C5F6D7367732F4C6F3F
:102E2E0067003131616264373331633235393333A0
:102E3E00323631636436313833626431326436325D
:102E4E00393500396630653938626461363539385E
:102E5E0031393836646466353361666137613430D2
:102E6E0065343900393462323238663631373835A6
:102E7E0031623039633364653166346138363534E6
:102E8E0066383838003030316664653363616239D4
:102E9E0065333133613135303431366666303963FE
:102EAE003038656534004D657373616765206672F1
:102EBE006F6D206465766963652064726F707065EE
:102ECE00643A206D657373616765206C6172676526
:102EDE0072207468616E206275666665722E006D72
:102EEE006F746F72506F736500000000008800AC45
:102EFE0000F200F500000000003B045005F800FB56
:102F0E0000000000000904FA04FE000101000000A8
:102F1E000030033E0604010701000000000A014EC6
:102F2E00017A017D0100000000800187018E019170
:102F3E0001000000000E02D209C50100000000943D
:102F4E0001BC01BF01C2016D6F746F725F636F6E62
:102F5E0074726F6C2F6D6F746F72506F7365007239
:102F6E006F7373657269616C5F6D7367732F5265F2
:102F7E007175657374506172616D006E616E00697A
:102F8E006E66006F76660000000000611235100A52
:082F9E001236121A125612003D
:00000001FF
