:100000000C945D000C947A000C947A000C947A00A5
:100010000C947A000C947A000C947A000C947A0078
:100020000C947A000C947A000C947A000C947A0068
:100030000C947A000C947A000C947A000C947A0058
:100040000C94C1010C947A000C947A000C947A0000
:100050000C947A000C947A000C947A000C947A0038
:100060000C947A000C947A00000000070002010052
:100070000003040600000000000000000102040864
:100080001020408001020408102001020408102002
:10009000040404040404040402020202020203032E
:1000A0000303030300000000250028002B000000CC
:1000B0000000240027002A00B40111241FBECFEF46
:1000C000D8E0DEBFCDBF21E0A0E0B1E001C01D92CD
:1000D000A135B207E1F710E0CDE5D0E004C02197EB
:1000E000FE010E943303CC35D107C9F70E942603D5
:1000F0000C9439030C9400005C9A5C9808955E9A05
:100100005E9808952A9A2A9808952C9A2C98089512
:10011000682F85E00C94F602682F87E00C94F602B5
:10012000682F8BE00C94F602682F8DE00C94F60299
:1001300061E082E00E94BA0261E083E00E94BA02BC
:1001400061E088E00E94BA0261E089E00E94BA02A0
:1001500061E084E00E94BA0261E085E00E94BA0298
:1001600061E086E00E94BA0261E087E00E94BA0284
:1001700061E08AE00E94BA0261E08BE00E94BA026C
:1001800061E08CE00E94BA0261E08DE00E94BA0258
:1001900060E082E00E94F60261E083E00E94F602E5
:1001A00060E088E00E94F60261E089E00E94F602C9
:1001B000E0E0F1E088E890E0918380838CE790E0D4
:1001C000938382831286138614861586168217827D
:1001D0001086118688EC90E0A0E0B0E086879787D3
:1001E000A08BB18B8CE890E0938B828B8FE790E0B3
:1001F000958B848B148E158E168E178E108E118E05
:10020000128E138E80E991E0A0E0B0E080A391A36C
:10021000A2A3B3A380E990E095A384A382E890E031
:1002200097A386A316A617A610AA11AA12A613A60C
:1002300014A615A680E293E0A0E0B0E082AB93ABF9
:10024000A4ABB5AB84E990E097AB86AB85E890E0D2
:1002500091AF80AF10924001109241011092420183
:100260001092430114AE15AE16AE17AE80E496E0C0
:10027000A0E0B0E08093440190934501A093460133
:10028000B093470108951F93CF93DF93C0E0D0E070
:1002900012E11C9FF0011D9FF00D1124E050FF4F53
:1002A000468557856089718982859385A485B58542
:1002B0000190F081E02D481759076A077B071CF46D
:1002C00080E090E002C081E090E009952196C43082
:1002D000D105F9F6DF91CF911F910895FF920F9309
:1002E0001F93CF93DF930E94430100E010E082E16F
:1002F000F82EF09EE001F19ED00D1124C050DF4F8A
:100300004A855B856C857D858E859F85A889B989A1
:10031000481759076A077B07ACF4EA81FB81099506
:100320008C819D814A855B856C857D85092E000CBD
:10033000AA0BBB0B840F951FA61FB71F8A879B872D
:10034000AC87BD870F5F1F4F0430110591F66AE03F
:1003500070E080E090E0DF91CF911F910F91FF90CE
:100360000C9430020C946E01E0E0F1E081E090E04A
:1003700095838483978B868B91A780A793AF82AF59
:1003800008951F920F920FB60F9211242F933F934F
:100390008F939F93AF93BF938091490190914A01AE
:1003A000A0914B01B0914C013091480123E0230F03
:1003B0002D3720F40196A11DB11D05C026E8230F9D
:1003C0000296A11DB11D209348018093490190938D
:1003D0004A01A0934B01B0934C0180914D01909143
:1003E0004E01A0914F01B09150010196A11DB11D88
:1003F00080934D0190934E01A0934F01B093500113
:10040000BF91AF919F918F913F912F910F900FBE10
:100410000F901F9018953FB7F89480914D019091DF
:100420004E01A0914F01B091500126B5A89B05C087
:100430002F3F19F00196A11DB11D3FBFBA2FA92F63
:10044000982F8827820F911DA11DB11DBC01CD01E0
:1004500042E0660F771F881F991F4A95D1F70895CC
:10046000CF92DF92EF92FF92CF93DF936B017C01EB
:100470000E940B02EB01C114D104E104F10479F0F4
:100480000E940B026C1B7D0B683E7340A0F381E061
:10049000C81AD108E108F108C851DC4FECCFDF9150
:1004A000CF91FF90EF90DF90CF900895789484B52E
:1004B000826084BD84B5816084BD85B5826085BD60
:1004C00085B5816085BDEEE6F0E080818160808346
:1004D000E1E8F0E010828081826080838081816029
:1004E0008083E0E8F0E0808181608083E1EBF0E0F0
:1004F000808184608083E0EBF0E080818160808394
:10050000EAE7F0E08081846080838081826080837C
:100510008081816080838081806880831092C100A7
:100520000895833081F028F4813099F08230A1F071
:1005300008958630A9F08730B9F08430D1F48091E5
:1005400080008F7D03C0809180008F778093800032
:10055000089584B58F7702C084B58F7D84BD0895DA
:100560008091B0008F7703C08091B0008F7D809321
:10057000B0000895CF93DF9390E0FC01E458FF4F63
:100580002491FC01E057FF4F8491882361F190E0B2
:10059000880F991FFC01E255FF4FC591D491FC01D2
:1005A000EC55FF4FA591B491611109C09FB7F89424
:1005B0008881209582238883EC912E230BC06230A2
:1005C00061F49FB7F8943881822F809583238883C4
:1005D000EC912E2B2C939FBF06C08FB7F894E88127
:1005E0002E2B28838FBFDF91CF9108951F93CF9338
:1005F000DF93282F30E0F901E859FF4F8491F9018A
:10060000E458FF4FD491F901E057FF4FC491CC2338
:10061000C9F0162F81110E949102EC2FF0E0EE0F2D
:10062000FF1FEC55FF4FA591B4918FB7F8941111AE
:1006300005C09C91ED2FE095E92302C0EC91ED2BD4
:10064000EC938FBFDF91CF911F9108950E945602C6
:100650000E949800C0E0D0E00E94B2012097E1F330
:100660000E940000F9CFEE0FFF1F0590F491E02DDE
:060670000994F894FFCF8D
:00000001FF
